:1000000028C042C041C040C0A7C79AC03DC03CC044
:100010003BC03AC039C038C037C036C035C039C619
:100020002DC621C615C609C6FDC5F3C5E5C5D7C58C
:10003000CBC5B6C5F2C6FAC602C70AC712C71AC7E9
:1000400020C726C72EC736C73CC746C750C75AC7A2
:10005000DBC611241FBECFE5D2E0DEBFCDBF10E06E
:10006000A0E6B0E0E8E9F3E102C005900D92AE38F9
:10007000B107D9F710E0AEE8B0E001C01D92A03B97
:10008000B107E1F751D75AC0BBCFA0E0B0E0EAE436
:10009000F0E02FC9EC01A880B980CA80DB80A114F0
:1000A000B104C104D10441F484E2A82E89EDB82E34
:1000B0008BE5C82E87E0D82EC601B5012DE133EFC0
:1000C00041E050E0F3D827EA31E440E050E0AED818
:1000D0007B018C01C601B5012DE133EF41E050E019
:1000E000E5D8CA01B9012CEE34EF4FEF5FEF9ED88F
:1000F0006E0D7F1D801F911F97FF04C061507040DF
:1001000080409048688379838A839B839B01AC01FC
:100110005F77B901CA01CDB7DEB7EAE006C9B5DF3E
:10012000089580E690E0B1DF0895609360007093D9
:10013000610080936200909363000895F8942AC947
:100140001F920F920FB60F9211242F933F934F934C
:100150005F936F937F938F939F93AF93BF93EF932F
:10016000FF9380916400482F50E070E0A0E0B0E081
:10017000FD01E257FF4F808190E0009789F0FD017B
:10018000E159FF4F6081FD01E258FF4FE08120E01F
:1001900030E067BBE8BB2F5F3F4F28173907C8F334
:1001A0008417950738F417BA18BA0196841795077B
:1001B000D0F3CA011196AF30B105D1F617BA18BA0B
:1001C0007F5F773099F690939E0080939D007093A7
:1001D000A0008FE080939F00FF91EF91BF91AF91BE
:1001E0009F918F917F916F915F914F913F912F914F
:1001F0000F900FBE0F901F901895CF92DF92EF9245
:10020000FF920F931F93CF93DF93E82EFB018A0198
:10021000E90121E06836720774F09B0128563140ED
:10022000C90168E671E01BD8CB0168E97EEFECD725
:10023000F901E80FF91FF7FF10C09F0127593E4F42
:10024000CF018095909569E671E009D8CB0169E608
:1002500071E0DAD7F901E80FF91F0115110549F12D
:100260008FEF90E0801B910BBE01CED79C01032F36
:10027000112707FD1A958CE3C82ED12CCF016CE312
:1002800070E001D86230710509F453C06330710524
:1002900054F16430710509F4E0C0643071050CF468
:1002A000B4C06530710509F469C0FF2440E020E066
:1002B0000AC0CE01959587959595879595958795D3
:1002C000F82E482F282FEE2DF0E0E257FF4FF08256
:1002D00045832287DF91CF911F910F91FF90EF907F
:1002E000DF90CF9008956115710509F062C0CE01CD
:1002F000959587959595879595958795F82EC01B2B
:10030000D10BCF01BE0180D76CE370E0BCD7600F8A
:10031000711F759567957595679575956795462FC6
:10032000C901892F990F990B859585958595282F5A
:10033000CACFC901892F990F990B85958595859508
:10034000F82ECE01959587959595879595958795E6
:10035000482FCF016CE370E096D7C01BD10BBE01D4
:1003600053D76CE370E08FD7600F711F7595679559
:100370007595679575956795262FA5CFCE019595AF
:1003800087959595879595958795F82EC901892F1D
:10039000990F990B859585958595482FCF016CE32D
:1003A00070E071D7C01BD10B9601281B390BC90116
:1003B000D6CF6130710509F078CFCF016CE370E0E2
:1003C00062D7BE01601B710BA601481B590BCA0105
:1003D0001BD76CE370E057D7600F711F7595679559
:1003E0007595679575956795F62ED595C795D595AD
:1003F000C795D595C7954C2FC901892F990F990B92
:10040000859585958595282F5ECFC901892F990FF0
:10041000990B859585958595F82ECF016CE370E055
:1004200032D7BE01601B710B9601281B390BC90125
:10043000EBD66CE370E027D7600F711F7595679559
:100440007595679575956795462FD595C795D595FB
:10045000C795D595C7952C2F36CFCF016CE370E0AB
:1004600012D7BE01601B710BCFD66CE370E00BD7C7
:10047000600F711F7595679575956795759567956B
:10048000F62EC901892F990F990B8595859585952C
:10049000482FD595C795D595C795D595C7952C2F38
:1004A00012CF6F927F928F929F92AF92BF92CF9214
:1004B000DF92EF92FF920F931F93CF93DF936A0126
:1004C0007B01A22EA0E0B0E0BC01CD0120E63AEE17
:1004D00040E050E0ABD66C0D7D1D8E1D9F1D6093DE
:1004E000A1007093A2008093A3009093A400802E9B
:1004F0009924662477246818790838E6E32E31E0D9
:10050000F32EE818F90871D52091A1003091A200CE
:100510004091A3005091A4006217730784079507C8
:1005200008F03EC08701C8E6D1E05FD52091A10068
:100530003091A2004091A3005091A400621773076C
:100540008407950700F7BB24CC24DD24C6016A2D5F
:1005500070E099D6CB018C0F9D1F68E671E093D6B1
:10056000BC018B2D4FEF50E02FEF30E046DEB3940F
:1005700088E691E0C80ED91E95E0B91639F764E116
:1005800070E080E090E03FD5C60DD71D060D171D29
:10059000C801880D991D181619060CF0B4CFC5CFE7
:1005A000DF91CF911F910F91FF90EF90DF90CF904F
:1005B000BF90AF909F908F907F906F9008958F9293
:1005C0009F92AF92BF92CF92DF92EF92FF920F93E2
:1005D0001F93CF93DF936A017B0159014801A0E08B
:1005E000B0E0BC01CD0120E63AEE40E050E01ED67E
:1005F0006C0D7D1D8E1D9F1D6093A1007093A20048
:100600008093A3009093A400E501FF24F394EDD41C
:100610002091A1003091A2004091A3005091A4002C
:10062000621773078407950730F58F2D992787FD8B
:100630009095C80FD91FC815D905D1F0CA15DB058B
:10064000A1F00C2FCD2E10E0812F602F7C2D4FEFCD
:1006500050E02FEF30E0D1DD1F5F1530A9F763E2E6
:1006600070E080E090E0CFD4D2CFFF24F394E9CFC4
:10067000FF24FA94E3CFDF91CF911F910F91FF9068
:10068000EF90DF90CF90BF90AF909F908F900895A4
:10069000CF92DF92EF92FF920F931F93DF93CF934E
:1006A000CDB7DEB72B970FB6F894DEBF0FBECDBF28
:1006B0007A018B01A0E0B0E0BC01CD0120E63AEE6A
:1006C00040E050E0B3D56E0D7F1D801F911F6093F9
:1006D000A1007093A2008093A3009093A4006E01E8
:1006E0000894C11CD11C8AE0F60111928A95E9F7A1
:1006F00068E671E080E090E03CD57A83698368E643
:1007000071E080E090E035D57C836B8368E671E032
:1007100080E090E02ED57E836D8368E671E080E016
:1007200090E027D578876F8368E671E080E090E0FD
:1007300020D57A87698747E6E42E41E0F42E55D428
:100740002091A1003091A2004091A3005091A400FB
:10075000621773078407950708F5860190E0F80192
:100760006081718161507040718360836F5F7F4FE2
:1007700011F4F182E082892F4FEF50E02FEF30E04B
:100780009B873BDD9B859F5F0E5F1F4F953039F741
:100790006AE070E080E090E036D4D1CF2B960FB6BF
:1007A000F894DEBF0FBECDBFCF91DF911F910F91A7
:1007B000FF90EF90DF90CF900895EF92FF920F930C
:1007C0001F937A018B01A0E0B0E0BC01CD0120E6CF
:1007D0003AEE40E050E02AD56E0D7F1D801F911F3C
:1007E0006093A1007093A2008093A3009093A40053
:1007F00011E0EE24E39400E0FF24F39416C0182FD8
:10080000112331F4E02FF0E0E257FF4F10820F5F29
:100810000F3010F100E0E0E0F0E0E257FF4F10830E
:1008200068E070E080E090E0EED3DFD32091A1009B
:100830003091A2004091A3005091A4006217730769
:100840008407950760F4812F81508E3108F0EF24E2
:10085000EE20A9F21F5FD4CFE02FF0E0DECF1F9192
:100860000F91FF90EF9008952F923F924F925F92D9
:100870006F927F928F929F92AF92BF92CF92DF92B0
:10088000EF92FF920F931F93DF93CF93CDB7DEB715
:100890002A970FB6F894DEBF0FBECDBF6C011A01C8
:1008A0002B01122FE02E68E671E080E090E061D429
:1008B0005B013E010894611C711CD301EAE6F0E083
:1008C00085E001900D928150E1F756E0852E912C44
:1008D0008C0E9D1ED401E5E6F0E085E001900D92BE
:1008E0008150E1F7B60180E090E020E63AEE40E08A
:1008F00050E09CD4620D731D841D951D6093A10072
:100900007093A2008093A3009093A400412E5524DD
:10091000332433946AD32091A1003091A2004091F6
:10092000A3005091A400621773078407950708F08D
:1009300063C0630100E010E081E0E81609F448C0FC
:10094000F2E0EF1609F44EC0F601F0808F2D90E032
:100950008C3F910564F5F2E0FF1578F0F401E00FAB
:10096000F11F808183258083A40CB51CE8E6AE16B8
:10097000E1E0BE0610F0AA24BB24F401E00FF11F51
:1009800080818823F1F0F301E00FF11F82E0F80E7F
:10099000F0820F5F1F4F0894C11CD11C0530110558
:1009A00059F663E070E080E090E02DD3B3CFF4011E
:1009B000E00FF11F80818325808382E08F15B0F2E4
:1009C000D3CFF301E00FF11F8EEFF80EF082E1CFED
:1009D000F601F080802FB5014EEF50E02F2D30E072
:1009E0000CDCB4CFF601F080802FB5014F2D50E024
:1009F0002EEF30E002DCAACF2A960FB6F894DEBFC5
:100A00000FBECDBFCF91DF911F910F91FF90EF905F
:100A1000DF90CF90BF90AF909F908F907F906F901E
:100A20005F904F903F902F9008958F929F92AF923A
:100A3000BF92CF92DF92EF92FF920F931F93CF93CB
:100A4000DF937C015A016B0168E671E080E090E081
:100A500090D34B0100E010E0C801B70120E63AEE68
:100A600040E050E0E3D36A0D7B1D8C1D9D1D60931B
:100A7000A1007093A2008093A3009093A40010E0C3
:100A8000812FB4014FEF50E020E830E0B6DB1F5F6C
:100A90001530B1F7AAD22091A1003091A200409167
:100AA000A3005091A400621773078407950708F00C
:100AB00044C068E270E080E090E02CE330E040E089
:100AC00050E07DD38401060F171F81E00836180718
:100AD00074F0980128563140C90168E671E0BFD32F
:100AE000CB0168E97EEF90D38901080F191FEE242E
:100AF00080169106B9F0E4018E2DBE014FEF50E053
:100B00002FEF30E07ADB219681E0C936D80714F068
:100B1000C0E0D0E061E070E080E090E074D2C01707
:100B2000D10751F768EC70E080E090E06CD2E3947C
:100B300085E0E816E9F64801ADCFDF91CF911F912E
:100B40000F91FF90EF90DF90CF90BF90AF909F906C
:100B50008F900895CF92DF92EF92FF920F931F93A1
:100B600080E090E08031910594F06EE070E080E0EC
:100B700090E0FFD2882777FD8095982FFB016B309E
:100B8000710558F080E090E08031910574F7FC0128
:100B9000E257FF4F10820196E5CFE15FFF4F0994C6
:100BA00068E671E080E090E0E4D26B017C018B01AB
:100BB0001CD2AB01BC0108581F4F85E090E09601A4
:100BC000FEDC80E090E0CECF10D2AB01BC0185E02E
:100BD00090E020EF30E007E611E0F1DCD3CF05D262
:100BE000AB01BC0185E090E028E730E000EF10E0C9
:100BF000E6DC80E090E0B6CFF8D1AB01BC0185E047
:100C000090E020E030E008E710E0D9DC80E090E000
:100C1000A9CFEBD1AB01BC0185E090E006DF80E01D
:100C200090E0A0CFE2D1AB01BC0185E090E024E0F0
:100C300001E01ADE80E090E095CFD7D1AB01BC0196
:100C400085E090E021E001E00FDE80E090E08ACFD7
:100C5000CCD1AB01BC0185E090E025E002E021DCD5
:100C600080E090E07FCFC1D1AB01BC0185E090E096
:100C700025E001E016DC80E090E074CFB6D1AB0156
:100C8000BC0185E090E024E105E00BDC80E090E031
:100C900069CFABD1AB01BC0185E090E024E101E07C
:100CA00000DC80E090E05ECF85EA90E060E070E0FC
:100CB00040D18F3018F48093B00008951092B000A6
:100CC00008950F93DF93CF9300D0CDB7DEB704B66E
:100CD00000FC2EC004B601FC20C080E090E00FE1D3
:100CE0009C01220F331F3A83298381E01ED2817039
:100CF0009070E981FA818E2B9F2B015089F77CD26D
:100D000083B7816083BF89B7826089BF78940F9071
:100D10000F90CF91DF910F91089514BE8091B00094
:100D20008F5F8093B0008F30C0F21092B000D5CFAB
:100D300014BEBADFD2CF85EA90E060E070E0F9D06F
:100D40004091B000841729F085EA90E060E070E0FF
:100D5000F7D008958091B00081508093B0008F301B
:100D600018F08EE08093B000E6DF3798479A85B799
:100D7000846885BF85B7877E806185BF85B78062BF
:100D800085BF7894889564EF71E080E090E03BD176
:100D900085B78F7D85BF0895CF92DF92EF92FF9246
:100DA0000F931F9310E0E091B000F0E0E257FF4F87
:100DB000108368E070E080E090E025D11F5F103282
:100DC00091F764EF71E080E090E01DD11FE1E091C8
:100DD000B000F0E0E257FF4F108368E070E080E081
:100DE00090E011D1115098F764E670E080E090E057
:100DF0000AD1A1DF8091B000E82FF0E0EF30F105DB
:100E000020F4E65EFF4F0994A5DEA4DF1F910F9149
:100E1000FF90EF90DF90CF900895E7D0AB01BC0139
:100E200080EF90E024E101E03CDBEFCFDED0AB01CE
:100E3000BC0180EF90E024E102E033DBE6CFD5D0C7
:100E4000AB01BC0180EF90E024E105E02ADBDDCFBF
:100E5000CCD0AB01BC0180EF90E025E001E021DBCC
:100E6000D4CFC3D0AB01BC0180EF90E025E002E01D
:100E700018DBCBCFBAD0AB01BC0180EF90E0D5DD61
:100E8000C4CFB3D0AB01BC0180EF90E001DCBDCF9B
:100E9000ACD0AB01BC0180EF90E021E001E0E4DCEC
:100EA000B4CFA3D0AB01BC0180EF90E024E001E01F
:100EB000DBDCABCF9AD0AB01BC0180EF90E07DDCF6
:100EC000A4CF93D0AB01BC0180EF90E020E030E0F4
:100ED00008E710E074DB99CF88D0AB01BC0180EF4C
:100EE00090E028E730E000EF10E069DB8ECF7DD0A6
:100EF000AB01BC0180EF90E020EF30E007E611E0AD
:100F00005EDB83CF68E671E080E090E032D16B0178
:100F10007C018B016AD0AB01BC0108581F4F80EFE8
:100F200090E096014CDB71CFDAD0CBDE35DF34DFD9
:100F3000FDCFE199FECF7FBB6EBBE09A8DB30895E4
:100F4000E199FECF1CBA7FBB6EBB4DBB0FB6F894C8
:100F5000E29AE19A0FBE08951F920F920FB60F9278
:100F600011242F933F938F939F93AF93BF938091BF
:100F7000AA009091AB00A091AC00B091AD0030916F
:100F8000AE00232F2D5F2D3758F50196A11DB11D01
:100F90002093AE008093AA009093AB00A093AC0086
:100FA000B093AD008091A6009091A700A091A800F9
:100FB000B091A9000196A11DB11D8093A600909348
:100FC000A700A093A800B093A900BF91AF919F91F3
:100FD0008F913F912F910F900FBE0F901F901895FA
:100FE0002D570296A11DB11DD3CF8FB7F894209134
:100FF000AA003091AB004091AC005091AD008FBF82
:10100000B901CA010895EF92FF920F931F937B01DC
:101010008C012FB7F8948091A6009091A700A09121
:10102000A800B091A9003FB508B602FE05C03F3F39
:1010300019F00196A11DB11D2FBFE114F1040105A6
:10104000110509F447C0BA2FA92F982F8827830FBD
:10105000911DA11DB11D880F991FAA1FBB1F880FCD
:10106000991FAA1FBB1FAC013FB7F8948091A6003F
:101070009091A700A091A800B091A9002FB508B643
:1010800002FE05C02F3F19F00196A11DB11D3FBF03
:10109000BA2FA92F982F8827820F911DA11DB11D4E
:1010A000880F991FAA1FBB1F880F991FAA1FBB1F5C
:1010B000841B950B885E9340B8F20894E108F10810
:1010C00001091109E114F1040105110519F0485154
:1010D0005C4FCACF1F910F91FF90EF9008957894C5
:1010E00080B7806880BF80B7806480BF8CB5806423
:1010F0008CBD8FEF8DBD80B7807F876080BF89B743
:10110000846089BF83B7887F83BF8AB58C7F816005
:101110008ABD83B7877F83BF83B7887F836083BFA0
:1011200086B1876086B9379A0895482F863008F0CF
:1011300046508091AF0027B1382F3295330F330FCF
:10114000307C2F72322B90E084709070969587954A
:10115000969587958295807F382B37B987B1807FA8
:10116000842B87B9369A3699FECF24B135B1C9019F
:101170000895EF92FF920F931F937B018C016115ED
:1011800071058105910559F420E030E040E050E020
:10119000B901CA011F910F91FF90EF900895C1D737
:1011A000A801970183D0AC01CB01DA019C01AD010C
:1011B000B901CA011F910F91FF90EF900895EF922E
:1011C000FF920F931F937B018C01621773078407B3
:1011D00095075CF4261B370B480B590BCA01B90164
:1011E000C8DFE60EF71E081F191FB701C8011F91BF
:1011F0000F91FF90EF900895009709F40895BC01B6
:1012000080E090E092D708955527002480FF02C027
:10121000060E571F660F771F6115710521F0969511
:101220008795009799F7952F802D0895FF27EE2732
:10123000BB27AA2760FF04C0A20FB31FE41FF51F3E
:10124000220F331F441F551F9695879577956795F5
:1012500089F70097760771F7CF01BD010895AA1BA2
:10126000BB1B51E107C0AA1FBB1FA617B70710F091
:10127000A61BB70B881F991F5A95A9F780959095C3
:10128000BC01CD01089597FB092E07260AD077FDF2
:1012900004D0E5DF06D000201AF4709561957F4FE9
:1012A0000895F6F7909581959F4F089597FB092E25
:1012B00005260ED057FD04D04BD00AD0001C38F4C0
:1012C00050954095309521953F4F4F4F5F4F089572
:1012D000F6F790958095709561957F4F8F4F9F4F52
:1012E00008952F923F924F925F926F927F928F92CA
:1012F0009F92AF92BF92CF92DF92EF92FF920F93A5
:101300001F93CF93DF93CDB7DEB7CA1BDB0B0FB6AE
:10131000F894DEBF0FBECDBF09942A88398848886B
:101320005F846E847D848C849B84AA84B984C88401
:10133000DF80EE80FD800C811B81AA81B981CE0FF8
:10134000D11D0FB6F894DEBF0FBECDBFED010895DD
:10135000A1E21A2EAA1BBB1BFD010DC0AA1FBB1FB9
:10136000EE1FFF1FA217B307E407F50720F0A21B2B
:10137000B30BE40BF50B661F771F881F991F1A9498
:1013800069F760957095809590959B01AC01BD01C2
:08139000CF010895F894FFCF8E
:10139800010000001F0101010101251D150D0503B4
:1013A80011180C06060311180C0A0512091402017B
:0E13B8001008040201100804020110080400CD
:00000001FF
