:1000000028C042C041C040C09ECD9AC03DC03CC047
:100010003BC03AC039C038C037C036C035C0AECB9F
:100020003CCBC7CA52CA46CA3ACA27CACFC976C940
:100030001CC9B3C85CCC9DCCA7CCB1CCBBCCC5CCC7
:10004000CDCCD5CCDFCCE9CCF1CCFDCC09CD15CDD8
:100050008CCC11241FBECFE5D2E0DEBFCDBF10E0B7
:10006000A0E6B0E0E0EBFFE102C005900D92AE38F3
:10007000B107D9F710E0AEE8B0E001C01D92A03B97
:10008000B107E1F70EDD5AC0BBCFA0E0B0E0EAE473
:10009000F0E03BCFEC01A880B980CA80DB80A114DE
:1000A000B104C104D10441F484E2A82E89EDB82E34
:1000B0008BE5C82E87E0D82EC601B5012DE133EFC0
:1000C00041E050E0FFDE27EA31E440E050E0BADEF4
:1000D0007B018C01C601B5012DE133EF41E050E019
:1000E000F1DECA01B9012CEE34EF4FEF5FEFAADE6B
:1000F0006E0D7F1D801F911F97FF04C061507040DF
:1001000080409048688379838A839B839B01AC01FC
:100110005F77B901CA01CDB7DEB7EAE012CFB5DF2C
:10012000089580E690E0B1DF0895609360007093D9
:10013000610080936200909363000895F89436CF35
:100140001F920F920FB60F9211242F933F934F934C
:100150005F936F937F938F939F93AF93BF93EF932F
:10016000FF9380916400482F50E077E0A0E0B0E07A
:10017000FD01E257FF4F808190E0009789F0FD017B
:10018000E159FF4F6081FD01E258FF4FE08120E01F
:1001900030E067BBE8BB2F5F3F4F28173907C8F334
:1001A0008417950738F417BA18BA0196841795077B
:1001B000D0F3CA011196AF30B105D1F617BA18BA0B
:1001C0007150A1F690939E0080939D0087E08093EC
:1001D000A0008FE080939F00FF91EF91BF91AF91BE
:1001E0009F918F917F916F915F914F913F912F914F
:1001F0000F900FBE0F901F901895CF92DF92EF9245
:10020000FF920F931F93CF93DF93E82EFB018A0198
:10021000E90121E06836720774F09B0128563140ED
:10022000C90168E671E027DECB0168E97EEFF8DD01
:10023000F901E80FF91FF7FF0EC0CF0180959095E7
:1002400069E671E018DECB0169E671E0E9DDE759A6
:10025000FE4FE80FF91F0115110549F18FEF90E0EE
:10026000801B910BBE01DCDD9C01032F112707FDD4
:100270001A958CE3C82ED12CCF016CE370E00FDE11
:100280006230710509F453C06330710554F1643074
:10029000710509F4E0C0643071050CF4B4C0653038
:1002A000710509F469C0FF2440E020E00AC0CE01D6
:1002B000959587959595879595958795F82E482FCF
:1002C000282FEE2DF0E0E257FF4FF0824583228782
:1002D000DF91CF911F910F91FF90EF90DF90CF9022
:1002E00008956115710509F062C0CE019595879555
:1002F0009595879595958795F82EC01BD10BCF01C5
:10030000BE018EDD6CE370E0CADD600F711F759574
:1003100067957595679575956795462FC901892FDE
:10032000990F990B859585958595282FCACFC90179
:10033000892F990F990B859585958595F82ECE0176
:10034000959587959595879595958795482FCF0194
:100350006CE370E0A4DDC01BD10BBE0161DD6CE37A
:1003600070E09DDD600F711F7595679575956795B8
:1003700075956795262FA5CFCE019595879595956F
:10038000879595958795F82EC901892F990F990B17
:10039000859585958595482FCF016CE370E07FDDCD
:1003A000C01BD10B9601281B390BC901D6CF613078
:1003B000710509F078CFCF016CE370E070DDBE010C
:1003C000601B710BA601481B590BCA0129DD6CE3A8
:1003D00070E065DD600F711F759567957595679580
:1003E00075956795F62ED595C795D595C795D595ED
:1003F000C7954C2FC901892F990F990B8595859524
:100400008595282F5ECFC901892F990F990B859566
:1004100085958595F82ECF016CE370E040DDBE0137
:10042000601B710B9601281B390BC901F9DC6CE3C9
:1004300070E035DD600F711F75956795759567954F
:1004400075956795462FD595C795D595C795D5953B
:10045000C7952C2F36CFCF016CE370E020DDBE01B5
:10046000601B710BDDDC6CE370E019DD600F711F48
:10047000759567957595679575956795F62EC9017C
:10048000892F990F990B859585958595482FD59539
:10049000C795D595C795D595C7952C2F12CF8F9217
:1004A0009F92BF92CF92DF92EF92FF920F931F9392
:1004B000CF93DF936A017B01B22EA0E0B0E0BC01D4
:1004C000CD0120E63AEE40E050E0BCDC6C0D7D1D35
:1004D0008E1D9F1D6093A1007093A2008093A300C6
:1004E0009093A400C02EDD24882499248C189D08A4
:1004F00038E6E32E31E0F32EEC18FD086DDB209199
:10050000A1003091A2004091A3005091A400621775
:1005100073078407950708F07CC08701C8E6D1E01F
:100520005BDB2091A1003091A2004091A30050918B
:10053000A400621773078407950700F780E090E036
:100540006B2D70E0ACDCCE01860F971F68E671E082
:10055000A6DCBC0180E04FEF50E02FEF30E04DDE35
:1005600088E691E06B2D70E09ADCCE01860F971F34
:1005700068E671E094DCBC0181E04FEF50E02FEFC2
:1005800030E03BDE80ED92E06B2D70E088DCCE0148
:10059000860F971F68E671E082DCBC0182E04FEFB6
:1005A00050E02FEF30E029DE88E394E06B2D70E01F
:1005B00076DCCE01860F971F68E671E070DCBC0127
:1005C00083E04FEF50E02FEF30E017DE80EA95E058
:1005D0006B2D70E064DCCE01860F971F68E671E03A
:1005E0005EDCBC0184E04FEF50E02FEF30E005DE31
:1005F0006AE070E080E090E0FDDAC80DD91D080DDA
:10060000191DC8018C0D9D1D181619060CF076CF0A
:1006100087CFDF91CF911F910F91FF90EF90DF90E7
:10062000CF90BF909F908F9008958F929F92AF929E
:10063000BF92CF92DF92EF92FF920F931F93CF93CF
:10064000DF936A017B0159014801A0E0B0E0BC01E1
:10065000CD0120E63AEE40E050E0F4DB6C0D7D1D6C
:100660008E1D9F1D6093A1007093A2008093A30034
:100670009093A400E50111E02CC0CA15DB0509F434
:1006800045C080E0BE014FEF50E02FEF30E0B5DD18
:1006900081E0BE014FEF50E02FEF30E0AEDD82E0B1
:1006A000BE014FEF50E02FEF30E0A7DD83E0BE0149
:1006B0004FEF50E02FEF30E0A0DD84E0BE014FEFC0
:1006C00050E02FEF30E099DD68E270E080E090E0EC
:1006D00091DA82DA2091A1003091A2004091A3002A
:1006E0005091A400621773078407950788F4812F3F
:1006F000992787FD9095C80FD91FC815D90509F00E
:10070000BCCF1FEFCA15DB0509F0BBCF11E0B9CF95
:10071000DF91CF911F910F91FF90EF90DF90CF90DD
:10072000BF90AF909F908F900895EF92FF920F939C
:100730001F93DF93CF93CDB7DEB72A970FB6F89408
:10074000DEBF0FBECDBF7A018B01A0E0B0E0BC01DF
:10075000CD0120E63AEE40E050E074DB6E0D7F1DE7
:10076000801F911F6093A1007093A2008093A3004B
:100770009093A400FE0131968AE0DF011D928A95D4
:10078000E9F768E671E080E090E0EADA7A8369836D
:1007900068E671E080E090E0E3DA7C836B8368E6F2
:1007A00071E080E090E0DCDA7E836D8368E671E0E2
:1007B00080E090E0D5DA78876F8368E671E080E0CA
:1007C00090E0CEDA7A87698707E611E05AC069813E
:1007D0007A81615070407A8369836F5F7F4F11F433
:1007E0001A83098380E04FEF50E02FEF30E005DD02
:1007F0006B817C81615070407C836B836F5F7F4F26
:1008000011F41C830B8381E04FEF50E02FEF30E0B9
:10081000F4DC6D817E81615070407E836D836F5FFB
:100820007F4F11F41E830D8382E04FEF50E02FEFD6
:1008300030E0E3DC6F8178856150704078876F83AA
:100840006F5F7F4F11F418870F8383E04FEF50E005
:100850002FEF30E0D2DC69857A85615070407A876D
:1008600069876F5F7F4F11F41A87098784E04FEF24
:1008700050E02FEF30E0C1DC6AE070E080E090E013
:10088000B9D9AAD92091A1003091A2004091A3002A
:100890005091A400621773078407950708F497CF57
:1008A0002A960FB6F894DEBF0FBECDBFCF91DF9171
:1008B0001F910F91FF90EF900895EF92FF920F9389
:1008C0001F937A018B01A0E0B0E0BC01CD0120E6CE
:1008D0003AEE40E050E0B6DA6E0D7F1D801F911FAA
:1008E0006093A1007093A2008093A3009093A40052
:1008F00011E0EE24E39400E0FF24F39416C0182FD7
:10090000112331F4E02FF0E0E257FF4F10820F5F28
:100910000F3010F100E0E0E0F0E0E257FF4F10830D
:100920006AE070E080E090E065D956D92091A1009E
:100930003091A2004091A3005091A4006217730768
:100940008407950760F4812F81508E3108F0EF24E1
:10095000EE20A9F21F5FD4CFE02FF0E0DECF1F9191
:100960000F91FF90EF9008957F928F929F92AF9298
:10097000BF92CF92DF92EF92FF920F931F93DF937C
:10098000CF93CDB7DEB72A970FB6F894DEBF0FBE70
:10099000CDBF4C015A016B01122F702E68E671E039
:1009A00080E090E0DDD97B01DE011196EAE6F0E01F
:1009B00085E001900D928150E1F7DE011696E5E6A3
:1009C000F0E085E001900D928150E1F7B40180E004
:1009D00090E020E63AEE40E050E034DA6A0D7B1D0C
:1009E0008C1D9D1D6093A1007093A2008093A300B5
:1009F0009093A400A12EBB244EC0233008F404C160
:100A00009E81992309F077C0225029832A81822F61
:100A100090E08C3F91050CF077C0233008F4DFC0E4
:100A20009F81992309F082C022502A832B81822F33
:100A300090E08C3F91050CF082C0233008F4C8C0D0
:100A40009885992309F08DC022502B832C81822F09
:100A500090E08C3F91050CF08DC0233008F4C6C0A7
:100A60009985992309F097C022502C832D81822FDC
:100A700090E08C3F91050CF097C0233008F4BDC086
:100A80009A85992309F4A1C02E5F2D8363E070E05D
:100A900080E090E0AFD8A0D82091A1003091A200D2
:100AA0004091A3005091A400621773078407950733
:100AB00008F002C281E0781609F458C182E0781685
:100AC00009F4A9C02981822F90E08C3F91050CF494
:100AD00094CF9E8181E098279E83233008F498C0AC
:100AE00088E6E81681E0F80608F48BCFEE24FF24B0
:100AF000992309F489CF2E5F29832A81822F90E0E0
:100B00008C3F91050CF489CF9F8181E098279F83CA
:100B1000233008F468C088E6E81681E0F80608F497
:100B200080CFEE24FF24992309F47ECF2E5F2A8301
:100B30002B81822F90E08C3F91050CF47ECF98851D
:100B400081E098279887233008F446C088E6E816A5
:100B500081E0F80608F475CFEE24FF24992309F408
:100B600073CF2E5F2B832C81822F90E08C3F9105D9
:100B70000CF473CF998581E0982799872330D0F1C1
:100B800088E6E81681E0F80608F46BCFEE24FF242F
:100B9000992309F469CF2E5F2C832D81822F90E059
:100BA0008C3F91050CF469CF9A8581E098279A874C
:100BB000233038F188E6E81681E0F80608F461CFC2
:100BC000EE24FF24992309F05FCF22502D835ECFBE
:100BD000988581E098279887EA0CFB1CB7CF9F8106
:100BE00081E098279F83EA0CFB1C95CF998581E0D3
:100BF00098279987EA0CFB1CC3CF9A8581E0982738
:100C00009A87EA0CFB1CD6CF9E8181E098279E83B1
:100C1000EA0CFB1C65CFD9800D2D10E080E0B701F8
:100C2000A8012EEF30E0E9DA0C3F11050CF492C177
:100C30009E8181E098279E8382E08D1508F0B6C1E1
:100C400088E6E81681E0F80610F0EE24FF249923E8
:100C500009F47CC182E0D80ED982DA800D2D10E033
:100C600081E0B701A8012EEF30E0C7DA0C3F110593
:100C70000CF466C19F8181E098279F8382E08D15E7
:100C800008F0A8C188E6E81681E0F80610F0EE2426
:100C9000FF24992309F450C182E0D80EDA82DB8068
:100CA0000D2D10E082E0B701A8012EEF30E0A5DAAB
:100CB0000C3F11050CF463C1988581E09827988753
:100CC00082E08D1508F079C188E6E81681E0F80623
:100CD00010F0EE24FF24992309F44DC182E0D80ED0
:100CE000DB82DC800D2D10E083E0B701A8012EEF40
:100CF00030E083DA0C3F11050CF431C1998581E0B5
:100D00009827998782E08D1508F072C188E6E81669
:100D100081E0F80610F0EE24FF24992309F427C19E
:100D200082E0D80EDC82DD800D2D10E084E0B7017A
:100D3000A8012EEF30E061DA0C3F11050CF4AAC0D7
:100D40009A8581E098279A8782E08D1508F0B1C0D6
:100D500088E6E81681E0F80610F0EE24FF249923D7
:100D600009F09FC08EEFD80EDD8290CED9800D2D78
:100D700010E080E0B7014EEF50E098013EDA0C3F02
:100D800011050CF4C7C09E8197259E8382E08D15C6
:100D900008F019C188E6E81681E0F80610F0EE24A4
:100DA000FF24992309F4B2C082E0D80ED982DA80F8
:100DB0000D2D10E081E0B7014EEF50E098011DDAF3
:100DC0000C3F11050CF49CC09F8181E098279F8304
:100DD00082E08D1508F0DCC088E6E81681E0F806B0
:100DE00010F0EE24FF24992309F486C082E0D80E87
:100DF000DA82DB800D2D10E082E0B7014EEF50E08B
:100E00009801FBD90C3F11050CF46AC0988581E06C
:100E10009827988782E08D1508F0C1C088E6E8160B
:100E200081E0F80610F0EE24FF24992309F460C055
:100E300082E0D80EDB82DC800D2D10E083E0B7016C
:100E40004EEF50E09801D9D90C3F11050CF468C061
:100E5000998581E09827998782E08D1508F0C1C0B7
:100E600088E6E81681E0F80610F0EE24FF249923C6
:100E700009F45EC082E0D80EDC82DD800D2D10E02A
:100E800084E0B7014EEF50E09801B7D90C3F11054F
:100E90000CF056CF82E08D1540F49A85992309F421
:100EA00061CF82E0D80EDD82F1CD9A8581E098276E
:100EB0009A87EA0CFB1C4CCF2A960FB6F894DEBF3B
:100EC0000FBECDBFCF91DF911F910F91FF90EF909B
:100ED000DF90CF90BF90AF909F908F907F900895BC
:100EE00082E08D1508F057C09885992309F0A0CFAE
:100EF0008EEFD80EDB829FCF8EEFD80EDA8279CFBD
:100F000082E08D1508F040C09F816DCF8EEFD80E26
:100F1000D9824DCF82E08D1508F052C09E8141CF1D
:100F200082E08D1508F059C09985992309F0A2CF68
:100F30008EEFD80EDC82A1CF8EEFD80EDA82AFCE44
:100F400082E08D1508F042C09F81A3CE8EEFD80EAF
:100F5000D98283CE82E08D1528F59E8178CE82E0FD
:100F60008D1508F041C09985992309F0D9CE8EEFEF
:100F7000D80EDC82D8CE8EEFD80EDB82B2CE82E0E5
:100F80008D15B8F49885A7CE9F8181E098279F831F
:100F9000EA0CFB1C21CF988581E098279887EA0C02
:100FA000FB1C3CCF9E8181E098279E83EA0CFB1CB2
:100FB00047CE988581E098279887EA0CFB1C84CE61
:100FC0009E8197259E83EA0CFB1CE4CE9F8181E0E5
:100FD00098279F83EA0CFB1C55CE998581E09827C2
:100FE0009987EA0CFB1C3CCF998581E0982799876B
:100FF000EA0CFB1C8BCE6F927F928F929F92AF92E6
:10100000BF92CF92DF92EF92FF920F931F93CF93F5
:10101000DF937C013A014B0168E671E080E090E0EB
:101020009FD65B016C016B0100E010E0C801B701C5
:1010300020E63AEE40E050E005D7660D771D881DAA
:10104000991D6093A1007093A2008093A3009093D8
:10105000A40080E0B5014FEF50E02FEF30E0CDD895
:1010600081E0B5014FEF50E02FEF30E0C6D882E0CD
:10107000B5014FEF50E02FEF30E0BFD883E0B5016E
:101080004FEF50E02FEF30E0B8D884E0B5014FEFDC
:1010900050E02FEF30E0B1D89FD52091A1003091E2
:1010A000A2004091A3005091A40062177307840727
:1010B000950708F044C068E270E080E090E02CE31F
:1010C00030E040E050E07AD68601060F171F81E03D
:1010D0000836180774F0980128563140C90168E6AF
:1010E00071E0C9D6CB0168E97EEF9AD68901080F75
:1010F000191FEE24C016D106B9F0E6018E2DBE01EF
:101100004FEF50E02FEF30E078D8219681E0C936DC
:10111000D80714F0C0E0D0E061E070E080E090E03B
:1011200069D5C017D10751F768EC70E080E090E016
:1011300061D5E39485E0E816E9F66801ADCFDF916B
:10114000CF911F910F91FF90EF90DF90CF90BF90C4
:10115000AF909F908F907F906F900895CF92DF9285
:10116000EF92FF920F931F93CF93DF9380E090E075
:10117000803191050CF48DC16EE070E080E090E06C
:10118000EFD5882777FD8095982FFB016B3071058F
:1011900008F065C3E15FFF4F099468E671E080E005
:1011A00090E0DED57B018C01EB0158E7C52ED12CF8
:1011B000C60ED71E11D560527C468B4F9F4F609351
:1011C000A1007093A2008093A3009093A40011E06B
:1011D0002CC0CE15DF0509F446C080E0B7014FEF03
:1011E00050E02FEF30E009D881E0B7014FEF50E039
:1011F0002FEF30E002D882E0B7014FEF50E02FEF41
:1012000030E0FBD783E0B7014FEF50E02FEF30E045
:10121000F4D784E0B7014FEF50E02FEF30E0EDD787
:1012200068E270E080E090E0E5D4D6D42091A1009F
:101230003091A2004091A3005091A400621773075F
:101240008407950708F00BC3812F992787FD909598
:10125000E80EF91ECE14DF0409F0BBCF1FEFCE1548
:10126000DF0509F0BACF11E0B8CFB6D460527C46A2
:101270008B4F9F4F6093A1007093A2008093A300B7
:101280009093A400C0EFD0E011E02CC0C03FD10586
:1012900009F411E080E0BE014FEF50E02FEF30E0A5
:1012A000ACD781E0BE014FEF50E02FEF30E0A5D783
:1012B00082E0BE014FEF50E02FEF30E09ED783E099
:1012C000BE014FEF50E02FEF30E097D784E0BE0132
:1012D0004FEF50E02FEF30E090D768E270E080E011
:1012E00090E088D479D42091A1003091A20040915F
:1012F000A3005091A400621773078407950708F0B4
:10130000AEC2812F992787FD9095C80FD91F81E024
:10131000C736D80709F0BACF1FEFBCCF5DD46052F3
:101320007C468B4F9F4F6093A1007093A2008093E7
:10133000A3009093A400C8E7D0E011E02CC0C83708
:10134000D10509F411E080E0BE014FEF50E02FEF2E
:1013500030E053D781E0BE014FEF50E02FEF30E097
:101360004CD782E0BE014FEF50E02FEF30E045D781
:1013700083E0BE014FEF50E02FEF30E03ED784E036
:10138000BE014FEF50E02FEF30E037D768E270E05A
:1013900080E090E02FD420D42091A1003091A200D1
:1013A0004091A3005091A40062177307840795072A
:1013B00008F055C2812F992787FD9095C80FD91F36
:1013C000C03FD10509F0BBCF1FEFBDCF05D46052A0
:1013D0007C468B4F9F4F6093A1007093A200809337
:1013E000A3009093A400C0E0D0E011E02BC02097B0
:1013F00009F411E080E0BE014FEF50E02FEF30E044
:10140000FCD681E0BE014FEF50E02FEF30E0F5D683
:1014100082E0BE014FEF50E02FEF30E0EED683E0E8
:10142000BE014FEF50E02FEF30E0E7D684E0BE0181
:101430004FEF50E02FEF30E0E0D668E270E080E060
:1014400090E0D8D3C9D32091A1003091A20040915F
:10145000A3005091A400621773078407950708F052
:10146000FEC1812F992787FD9095C80FD91FC837D6
:10147000D10509F0BCCF1FEFBDCFAED3AB01BC018E
:1014800085E090E0B8DD80E090E0803191050CF0DF
:1014900073CEFC01E257FF4F1082019669CE9CD3B8
:1014A000AB01BC0185E090E024E001E05DDA80E082
:1014B00090E05ECE91D3AB01BC0185E090E021E0ED
:1014C00001E052DA80E090E053CE86D360527C4651
:1014D0008B4F9F4F6093A1007093A2008093A30055
:1014E0009093A40079D32091A1003091A200409163
:1014F000A3005091A400621773078407950708F0B2
:10150000AEC1C8E6D1E068D32091A1003091A2001D
:101510004091A3005091A4006217730784079507B8
:1015200008F7CE0168E671E0BAD4BC0180E04FEF65
:1015300050E02FEF30E061D6CE01885B9F4F68E628
:1015400071E0ADD4BC0181E04FEF50E02FEF30E00F
:1015500054D6CE0180579F4F68E671E0A0D4BC01FD
:1015600082E04FEF50E02FEF30E047D6CE018852B7
:101570009F4F68E671E093D4BC0183E04FEF50E0E9
:101580002FEF30E03AD6CE01805E9E4F68E671E0E4
:1015900086D4BC0184E04FEF50E02FEF30E02DD631
:1015A0006AE070E080E090E025D3229709F49ACFBA
:1015B000AACF12D360527C468B4F9F4F6093A100FD
:1015C0007093A2008093A3009093A40005D3209170
:1015D000A1003091A2004091A3005091A400621795
:1015E00073078407950708F03AC1C8E6D1E0F4D242
:1015F0002091A1003091A2004091A3005091A4003D
:10160000621773078407950708F7CE0168E671E053
:1016100046D4BC0180E04FEF50E02FEF30E0EDD535
:10162000CE01885B9F4F68E671E039D4BC0181E050
:101630004FEF50E02FEF30E0E0D5CE0180579F4FC5
:1016400068E671E02CD4BC0182E04FEF50E02FEF50
:1016500030E0D3D5CE0188529F4F68E671E01FD4A9
:10166000BC0183E04FEF50E02FEF30E0C6D5CE0154
:10167000805E9E4F68E671E012D4BC0184E04FEFBB
:1016800050E02FEF30E0B9D56AE070E080E090E004
:10169000B1D2219709F49ACFAACF9ED260527C464C
:1016A0008B4F9F4F6093A1007093A2008093A30083
:1016B0009093A40091D22091A1003091A20040917A
:1016C000A3005091A400621773078407950708F0E0
:1016D000C6C0C8E6D1E080D22091A1003091A2001E
:1016E0004091A3005091A4006217730784079507E7
:1016F00008F7CE0168E671E0D2D3BC0180E04FEF7D
:1017000050E02FEF30E079D5CE01429668E671E0E7
:10171000C6D3BC0181E04FEF50E02FEF30E06DD534
:10172000CE01849668E671E0BAD3BC0182E04FEF47
:1017300050E02FEF30E061D5CE01C69668E671E04B
:10174000AED3BC0183E04FEF50E02FEF30E055D532
:10175000CE01885B9F4F68E671E0A1D3BC0184E0B5
:101760004FEF50E02FEF30E048D56AE070E080E0C6
:1017700090E040D2259709F49DCFADCF2DD2605295
:101780007C468B4F9F4F6093A1007093A200809383
:10179000A3009093A40020D22091A1003091A20038
:1017A0004091A3005091A400621773078407950726
:1017B00008F055C0C8E6D1E00FD22091A1003091C9
:1017C000A2004091A3005091A40062177307840700
:1017D000950708F7CE0168E671E061D3BC0180E0AF
:1017E0004FEF50E02FEF30E008D5CE01429668E68B
:1017F00071E055D3BC0181E04FEF50E02FEF30E0B6
:10180000FCD4CE01849668E671E049D3BC0182E045
:101810004FEF50E02FEF30E0F0D4CE01C69668E6EF
:1018200071E03DD3BC0183E04FEF50E02FEF30E09B
:10183000E4D4CE01885B9F4F68E671E030D3BC01F1
:1018400084E04FEF50E02FEF30E0D7D46AE070E053
:1018500080E090E0CFD1219709F49DCFADCF80E01B
:1018600090E086CCCF92DF92EF92FF920F931F937E
:1018700010E0E091B000F0E0E257FF4F108368E025
:1018800070E080E090E0B6D11F5F103291F764EF16
:1018900071E080E090E0AED11FE1E091B000F0E0B7
:1018A000E257FF4F108368E070E080E090E0A2D143
:1018B000115098F764E670E080E090E09BD185EAF3
:1018C00090E060E070E02CD14091B000841739F0D6
:1018D00085EA90E060E070E02AD14091B000E42F0A
:1018E000F0E0EF30F10568F4E65EFF4F099474D143
:1018F000AB01BC0180EF90E024E101E0D0D5409144
:10190000B000842F81508093B0008F3018F08EE0AB
:101910008093B00085EA90E060E070E001D14091F2
:10192000B000841729F085EA90E060E070E0FFD015
:101930003798479A85B7846885BF85B7877E806169
:1019400085BF85B7806285BF7894889564EF71E024
:1019500080E090E04FD185B78F7D85BF1F910F91BB
:10196000FF90EF90DF90CF900895F8DB4091B000AA
:10197000C8CF32D1AB01BC0180EF90E024E102E09E
:101980008ED54091B000BDCF27D1AB01BC0180EF17
:1019900090E024E105E083D54091B000B2CF1CD1A6
:1019A000AB01BC0180EF90E025E001E078D54091EB
:1019B000B000A7CF11D1AB01BC0180EF90E025E0D2
:1019C00002E06DD54091B0009CCF06D1AB01BC01C7
:1019D00080EF90E010DB4091B00093CFFDD0AB01E1
:1019E000BC0180EF90E0A1D64091B0008ACFF4D046
:1019F000AB01BC0180EF90E021E001E0B5D7409160
:101A0000B0007FCFE9D0AB01BC0180EF90E024E0D3
:101A100001E0AAD74091B00074CFDED0AB01BC0189
:101A200080EF90E04AD74091B0006BCFD5D0AB01AA
:101A3000BC0180EF90E020E030E008E710E0F5D551
:101A40004091B0005ECFC8D0AB01BC0180EF90E008
:101A500028E730E000EF10E0E8D54091B00051CF2A
:101A6000BBD0AB01BC0180EF90E020EF30E007E697
:101A700011E0DBD54091B00044CF68E671E080E032
:101A800090E06ED16B017C018B01A6D0AB01BC0153
:101A900008581F4F80EF90E09601C7D54091B000E5
:101AA00030CF0F93DF93CF9300D0CDB7DEB70ED1F9
:101AB00004B600FC2AC004B601FE0AC014BE809120
:101AC000B0008F5F8093B0008F3010F01092B000A4
:101AD00080E090E00EE19C01220F331F3A832983BE
:101AE00081E01AD181709070E981FA818E2B9F2B51
:101AF000015088F75BD183B7816083BF89B782606B
:101B000089BF7894AFDEAEDEFDCF14BE85EA90E0EB
:101B100060E070E005D08F30C8F68093B000D8CF79
:101B2000E199FECF7FBB6EBBE09A8DB30895E1993A
:101B3000FECF1CBA7FBB6EBB4DBB0FB6F894E29ACA
:101B4000E19A0FBE08951F920F920FB60F921124C3
:101B50002F933F938F939F93AF93BF938091AA004E
:101B60009091AB00A091AC00B091AD003091AE006F
:101B7000232F2D5F2D3758F50196A11DB11D209300
:101B8000AE008093AA009093AB00A093AC00B093FA
:101B9000AD008091A6009091A700A091A800B091FF
:101BA000A9000196A11DB11D8093A6009093A700E6
:101BB000A093A800B093A900BF91AF919F918F917E
:101BC0003F912F910F900FBE0F901F9018952D579A
:101BD0000296A11DB11DD3CF8FB7F8942091AA0012
:101BE0003091AB004091AC005091AD008FBFB90176
:101BF000CA010895EF92FF920F931F937B018C010E
:101C00002FB7F8948091A6009091A700A091A8000A
:101C1000B091A9003FB508B602FE05C03F3F19F0DC
:101C20000196A11DB11D2FBFE114F104010511059D
:101C300009F447C0BA2FA92F982F8827830F911D29
:101C4000A11DB11D880F991FAA1FBB1F880F991FC7
:101C5000AA1FBB1FAC013FB7F8948091A6009091DA
:101C6000A700A091A800B091A9002FB508B602FE68
:101C700005C02F3F19F00196A11DB11D3FBFBA2F1E
:101C8000A92F982F8827820F911DA11DB11D880FA4
:101C9000991FAA1FBB1F880F991FAA1FBB1F841B58
:101CA000950B885E9340B8F20894E108F1080109A9
:101CB0001109E114F1040105110519F048515C4FB7
:101CC000CACF1F910F91FF90EF900895789480B73D
:101CD000806880BF80B7806480BF8CB580648CBD15
:101CE0008FEF8DBD80B7807F876080BF89B78460AC
:101CF00089BF83B7887F83BF8AB58C7F81608ABDA7
:101D000083B7877F83BF83B7887F836083BF86B1B4
:101D1000876086B9379A0895482F863008F0465074
:101D20008091AF0027B1382F3295330F330F307CBD
:101D30002F72322B90E084709070969587959695CF
:101D400087958295807F382B37B987B1807F842B28
:101D500087B9369A3699FECF24B135B1C9010895B5
:101D6000EF92FF920F931F937B018C016115710518
:101D70008105910559F420E030E040E050E0B901E0
:101D8000CA011F910F91FF90EF900895CAD1A80149
:101D9000970198D0AC01CB01DA019C01AD01B901EA
:101DA000CA011F910F91FF90EF900895009709F4D9
:101DB0000895BC0180E090E0B8D10895AF92BF9241
:101DC000CF92DF92EF92FF920F931F937B018C01D2
:101DD00062177307840795075CF0B701C8011F916C
:101DE0000F91FF90EF90DF90CF90BF90AF9008954C
:101DF00059016A01A61AB70AC80AD90A49F480E04B
:101E000090E0A0E0B0E0E80EF91E0A1F1B1FE5CF2E
:101E100088D1A601950156D0AC01CB01DA01F3CFF0
:101E20005527002480FF02C0060E571F660F771F3C
:101E30006115710521F096958795009799F7952F73
:101E4000802D0895FF27EE27BB27AA2760FF04C037
:101E5000A20FB31FE41FF51F220F331F441F551F8E
:101E6000969587957795679589F70097760771F727
:101E7000CF01BD010895AA1BBB1B51E107C0AA1FDA
:101E8000BB1FA617B70710F0A61BB70B881F991F1B
:101E90005A95A9F780959095BC01CD01089597FBBF
:101EA000092E07260AD077FD04D0E5DF06D00020F2
:101EB0001AF4709561957F4F0895F6F79095819586
:101EC0009F4F089597FB092E05260ED057FD04D08D
:101ED0004BD00AD0001C38F4509540953095219590
:101EE0003F4F4F4F5F4F0895F6F79095809570954F
:101EF00061957F4F8F4F9F4F08952F923F924F9242
:101F00005F926F927F928F929F92AF92BF92CF9289
:101F1000DF92EF92FF920F931F93CF93DF93CDB792
:101F2000DEB7CA1BDB0B0FB6F894DEBF0FBECDBF0A
:101F300009942A88398848885F846E847D848C84DB
:101F40009B84AA84B984C884DF80EE80FD800C81E4
:101F50001B81AA81B981CE0FD11D0FB6F894DEBFC7
:101F60000FBECDBFED010895A1E21A2EAA1BBB1B27
:101F7000FD010DC0AA1FBB1FEE1FFF1FA217B30755
:101F8000E407F50720F0A21BB30BE40BF50B661F6B
:101F9000771F881F991F1A9469F76095709580952F
:101FA00090959B01AC01BD01CF010895F894FFCF3E
:101FB000010000001F0101010101251D150D050390
:101FC00011180C06060311180C0A05120914020157
:0E1FD0001008040201100804020110080400A9
:00000001FF
