:100000000EC028C027C026C091C280C023C022C015
:1000100021C020C01FC01EC01DC01CC01BC0112499
:100020001FBECFE5D2E0DEBFCDBF10E0A0E6B0E05E
:10003000EAECF8E002C005900D92A438B107D9F7B8
:1000400010E0A4E8B0E001C01D92A13AB107E1F7C9
:100050000CD25AC0D5CFA0E0B0E0E0E3F0E0E2C3BC
:10006000EC01A880B980CA80DB80A114B104C1046E
:10007000D10441F484E2A82E89EDB82E8BE5C82E78
:1000800087E0D82EC601B5012DE133EF41E050E005
:10009000A6D327EA31E440E050E061D37B018C0134
:1000A000C601B5012DE133EF41E050E098D3CA011C
:1000B000B9012CEE34EF4FEF5FEF51D36E0D7F1D82
:1000C000801F911F97FF04C061507040804090488E
:1000D000688379838A839B839B01AC015F77B90135
:1000E000CA01CDB7DEB7EAE0B9C3B5DF089580E64F
:1000F00090E0B1DF08956093600070936100809399
:100100006200909363000895F894DDC31F920F92EC
:100110000FB60F9211242F933F934F935F936F93DA
:100120007F938F939F93AF93BF93EF93FF938091B0
:100130006400482F50E077E0A0E0B0E0FD01EC570C
:10014000FF4F808190E0009789F0FD01EB59FF4F50
:100150006081FD01EC58FF4FE08120E030E067BB9B
:10016000E8BB2F5F3F4F28173907C8F3841795075F
:1001700038F417BA18BA019684179507D0F3CA0154
:100180001196AF30B105D1F617BA18BA7150A1F671
:10019000909394008093930087E0809396008FE083
:1001A00080939500FF91EF91BF91AF919F918F91B7
:1001B0007F916F915F914F913F912F910F900FBE63
:1001C0000F901F901895CF92DF92EF92FF920F93AE
:1001D0001F93CF93DF93E82EFB018A01E90121E011
:1001E0006836720774F09B0128563140C90168E6F1
:1001F00071E0CED2CB0168E97EEF9FD2F901E80F22
:10020000F91FF7FF0EC0CF018095909569E671E068
:10021000BFD2CB0169E671E090D2E759FE4FE80FFB
:10022000F91F0115110549F18FEF90E0801B910B2B
:10023000BE0183D29C01032F112707FD1A958CE381
:10024000C82ED12CCF016CE370E0B6D262307105BC
:1002500009F453C06330710554F16430710509F439
:10026000E0C0643071050CF4B4C06530710509F468
:1002700069C0FF2440E020E00AC0CE019595879533
:100280009595879595958795F82E482F282FEE2DD3
:10029000F0E0EC57FF4FF08245832287DF91CF914A
:1002A0001F910F91FF90EF90DF90CF90089561150F
:1002B000710509F062C0CE01959587959595879552
:1002C00095958795F82EC01BD10BCF01BE0135D275
:1002D0006CE370E071D2600F711F7595679575952D
:1002E000679575956795462FC901892F990F990BC9
:1002F000859585958595282FCACFC901892F990F96
:10030000990B859585958595F82ECE0195958795C0
:100310009595879595958795482FCF016CE370E06B
:100320004BD2C01BD10BBE0108D26CE370E044D2AB
:10033000600F711F759567957595679575956795AC
:10034000262FA5CFCE01959587959595879595955F
:100350008795F82EC901892F990F990B8595859559
:100360008595482FCF016CE370E026D2C01BD10BDE
:100370009601281B390BC901D6CF6130710509F0F0
:1003800078CFCF016CE370E017D2BE01601B710B18
:10039000A601481B590BCA01D0D16CE370E00CD206
:1003A000600F711F7595679575956795759567953C
:1003B000F62ED595C795D595C795D595C7954C2F4C
:1003C000C901892F990F990B859585958595282FBA
:1003D0005ECFC901892F990F990B859585958595D4
:1003E000F82ECF016CE370E0E7D1BE01601B710B0A
:1003F0009601281B390BC901A0D16CE370E0DCD158
:10040000600F711F759567957595679575956795DB
:10041000462FD595C795D595C795D595C7952C2FBA
:1004200036CFCF016CE370E0C7D1BE01601B710B0A
:1004300084D16CE370E0C0D1600F711F7595679532
:100440007595679575956795F62EC901892F990F52
:10045000990B859585958595482FD595C795D59503
:10046000C795D595C7952C2F12CF0F93CF93DF93B8
:1004700012D180E090E00EE1EC01CC0FDD1F81E0B5
:1004800030D1817090708C2B9D2B0150A8F74DD1ED
:1004900083B7816083BF89B7826089BF7894C8E6DB
:1004A000D1E0CE0168E671E073D1BC0180E04FEF8E
:1004B00050E02FEF30E087DECE01429668E671E033
:1004C00067D1BC0181E04FEF50E02FEF30E07BDEE1
:1004D000CE01849668E671E05BD1BC0182E04FEF0B
:1004E00050E02FEF30E06FDECE01C69668E671E097
:1004F0004FD1BC0183E04FEF50E02FEF30E063DEDF
:10050000CE01885B9F4F68E671E042D1BC0184E078
:100510004FEF50E02FEF30E056DE64E170E080E016
:1005200090E04DD0219709F0BCCFB9CF1F920F9228
:100530000FB60F9211242F933F938F939F93AF93F6
:10054000BF9380919B0090919C00A0919D00B091E1
:100550009E0030919F00232F2D5F2D3758F5019677
:10056000A11DB11D20939F0080939B0090939C0040
:10057000A0939D00B0939E00809197009091980069
:10058000A0919900B0919A000196A11DB11D809390
:10059000970090939800A0939900B0939A00BF9110
:1005A000AF919F918F913F912F910F900FBE0F9020
:1005B0001F9018952D570296A11DB11DD3CFEF9214
:1005C000FF920F931F937B018C012FB7F8948091BA
:1005D000970090919800A0919900B0919A003FB532
:1005E00008B602FE05C03F3F19F00196A11DB11DDE
:1005F0002FBFE114F1040105110509F447C0BA2F1A
:10060000A92F982F8827830F911DA11DB11D880F39
:10061000991FAA1FBB1F880F991FAA1FBB1FAC01E0
:100620003FB7F8948091970090919800A09199001D
:10063000B0919A002FB508B602FE05C02F3F19F001
:100640000196A11DB11D3FBFBA2FA92F982F882752
:10065000820F911DA11DB11D880F991FAA1FBB1FDD
:10066000880F991FAA1FBB1F841B950B885E9340A0
:10067000B8F20894E108F10801091109E114F10444
:100680000105110519F048515C4FCACF1F910F9118
:10069000FF90EF900895789480B7806880BF80B70E
:1006A000806480BF8CB580648CBD8FEF8DBD80B7BA
:1006B000807F876080BF89B7846089BF83B7887F68
:1006C00083BF8AB58C7F81608ABD83B7877F83BFF4
:1006D00083B7887F836083BF86B1876086B9379A86
:1006E0000895482F863008F046508091A00027B129
:1006F000382F3295330F330F307C2F72322B90E02E
:100700008470907096958795969587958295807F51
:10071000382B37B987B1807F842B87B9369A3699C1
:10072000FECF24B135B1C9010895009709F40895A9
:10073000BC0180E090E0DFDC08955527002480FFB5
:1007400002C0060E571F660F771F6115710521F055
:1007500096958795009799F7952F802D0895FF27F7
:10076000EE27BB27AA2760FF04C0A20FB31FE41F18
:10077000F51F220F331F441F551F969587957795B8
:10078000679589F70097760771F7CF01BD01089546
:10079000AA1BBB1B51E107C0AA1FBB1FA617B707A7
:1007A00010F0A61BB70B881F991F5A95A9F78095C3
:1007B0009095BC01CD01089597FB092E07260AD01C
:1007C00077FD04D0E5DF06D000201AF4709561951E
:1007D0007F4F0895F6F7909581959F4F089597FB69
:1007E000092E05260ED057FD04D04BD00AD0001C90
:1007F00038F450954095309521953F4F4F4F5F4FBE
:100800000895F6F790958095709561957F4F8F4F7D
:100810009F4F08952F923F924F925F926F927F92D7
:100820008F929F92AF92BF92CF92DF92EF92FF9200
:100830000F931F93CF93DF93CDB7DEB7CA1BDB0BAC
:100840000FB6F894DEBF0FBECDBF09942A88398851
:1008500048885F846E847D848C849B84AA84B98458
:10086000C884DF80EE80FD800C811B81AA81B98164
:10087000CE0FD11D0FB6F894DEBF0FBECDBFED0178
:100880000895A1E21A2EAA1BBB1BFD010DC0AA1FD1
:10089000BB1FEE1FFF1FA217B307E407F50720F0E9
:1008A000A21BB30BE40BF50B661F771F881F991F64
:1008B0001A9469F760957095809590959B01AC01AD
:0A08C000BD01CF010895F894FFCFA9
:1008CA00010000001F0311180C06060311180C0A78
:1008DA000512091402011008040201100804020199
:0408EA0010080400EE
:00000001FF
