:100000000EC028C027C026C0A1C2D2C123C022C0B2
:1000100021C020C01FC01EC01DC01CC01BC0112499
:100020001FBECFE5D2E0DEBFCDBF10E0A0E6B0E05E
:10003000E2E1F8E002C005900D92A438B107D9F7CB
:1000400010E0A4E8B0E001C01D92AF39B107E1F7BC
:1000500032D25AC0D5CFA0E0B0E0E0E3F0E086C3F2
:10006000EC01A880B980CA80DB80A114B104C1046E
:10007000D10441F484E2A82E89EDB82E8BE5C82E78
:1000800087E0D82EC601B5012DE133EF41E050E005
:100090004AD327EA31E440E050E005D37B018C01EC
:1000A000C601B5012DE133EF41E050E03CD3CA0178
:1000B000B9012CEE34EF4FEF5FEFF5D26E0D7F1DDF
:1000C000801F911F97FF04C061507040804090488E
:1000D000688379838A839B839B01AC015F77B90135
:1000E000CA01CDB7DEB7EAE05DC3B5DF089580E6AB
:1000F00090E0B1DF08956093600070936100809399
:100100006200909363000895F89481C3CF92DF92C8
:10011000EF92FF920F931F93CF93DF93E82EFB0193
:100120008A01E90121E06836720774F09B012856C4
:100130003140C90168E671E0CFD2CB0168E97EEFBA
:10014000A0D2F901E80FF91FF7FF0EC0CF0180958B
:10015000909569E671E0C0D2CB0169E671E091D279
:10016000E759FE4FE80FF91F0115110549F18FEF0F
:1001700090E0801B910BBE0184D29C01032F1127BC
:1001800007FD1A958CE3C82ED12CCF016CE370E0EB
:10019000B7D26230710509F453C06330710554F170
:1001A0006430710509F4E0C0643071050CF4B4C02A
:1001B0006530710509F469C0FF2440E020E00AC001
:1001C000CE01959587959595879595958795F82E68
:1001D000482F282FEE2DF0E0EC57FF4FF08245839B
:1001E0002287DF91CF911F910F91FF90EF90DF90C9
:1001F000CF9008956115710509F062C0CE01959503
:1002000087959595879595958795F82EC01BD10B69
:10021000CF01BE0136D26CE370E072D2600F711F65
:10022000759567957595679575956795462FC9017D
:10023000892F990F990B859585958595282FCACF7C
:10024000C901892F990F990B859585958595F82E6C
:10025000CE01959587959595879595958795482F86
:10026000CF016CE370E04CD2C01BD10BBE0109D2B0
:100270006CE370E045D2600F711F759567957595B9
:10028000679575956795262FA5CFCE01959587958E
:100290009595879595958795F82EC901892F990F82
:1002A000990B859585958595482FCF016CE370E076
:1002B00027D2C01BD10B9601281B390BC901D6CF01
:1002C0006130710509F078CFCF016CE370E018D28E
:1002D000BE01601B710BA601481B590BCA01D1D18D
:1002E0006CE370E00DD2600F711F75956795759581
:1002F000679575956795F62ED595C795D595C7954C
:10030000D595C7954C2FC901892F990F990B8595C4
:1003100085958595282F5ECFC901892F990F990B57
:10032000859585958595F82ECF016CE370E0E8D131
:10033000BE01601B710B9601281B390BC901A1D1AD
:100340006CE370E0DDD1600F711F75956795759551
:10035000679575956795462FD595C795D595C7959A
:10036000D595C7952C2F36CFCF016CE370E0C8D15F
:10037000BE01601B710B85D16CE370E0C1D1600FD1
:10038000711F759567957595679575956795F62EA7
:10039000C901892F990F990B859585958595482FCA
:1003A000D595C795D595C795D595C7952C2F12CFBF
:1003B0001F920F920FB60F9211242F933F934F93DA
:1003C0005F936F937F938F939F93AF93BF93EF93BD
:1003D000FF9317BA18BA809193009091940068E641
:1003E00071E07AD1BC0180E04FEF50E02FEF30E0B8
:1003F0008DDE8091930090919400429668E671E0C2
:100400006BD1BC0181E04FEF50E02FEF30E07EDE9A
:100410008091930090919400849668E671E05CD19D
:10042000BC0182E04FEF50E02FEF30E06FDE8091B3
:10043000930090919400C69668E671E04DD1BC019E
:1004400083E04FEF50E02FEF30E060DE80919300CB
:1004500090919400885B9F4F68E671E03DD1BC01AC
:1004600084E04FEF50E02FEF30E050DE80919300BA
:1004700090919400019690939400809393008091C2
:100480009300909194008956914020F0109294002E
:1004900010929300FF91EF91BF91AF919F918F9137
:1004A0007F916F915F914F913F912F910F900FBE70
:1004B0000F901F9018950F93CF93DF9390D080E00B
:1004C00090E00FE1EC01CC0FDD1F81E0AED0817038
:1004D00090708C2B9D2B0150A9F7CBD083B78560F2
:1004E00083BF89B7826089BF789480916400A82F08
:1004F000B0E060E070E0FB01EC57FF4F808190E0DE
:10050000009789F0FB01EB59FF4F4081FB01EC584C
:10051000FF4FE08120E030E047BBE8BB2F5F3F4F5B
:1005200028173907C8F38A179B0730F417BA18BA87
:1005300001968A179B07D0F36F5F7F4F6F3071056D
:10054000D1F617BA18BA60E070E0D5CF1F920F92BB
:100550000FB60F9211242F933F938F939F93AF93D6
:10056000BF938091990090919A00A0919B00B091C7
:100570009C0030919D00232F2D5F2D3758F501965B
:10058000A11DB11D20939D008093990090939A0026
:10059000A0939B00B0939C00809195009091960051
:1005A000A0919700B09198000196A11DB11D809374
:1005B000950090939600A0939700B0939800BF91F8
:1005C000AF919F918F913F912F910F900FBE0F9000
:1005D0001F9018952D570296A11DB11DD3CF789469
:1005E00080B7806880BF80B7806480BF8CB580642E
:1005F0008CBD8FEF8DBD80B7807F876080BF89B74E
:10060000846089BF83B7887F83BF8AB58C7F816010
:100610008ABD83B7877F83BF83B7887F836083BFAB
:1006200086B1876086B9379A0895482F863008F0DA
:10063000465080919E0027B1382F3295330F330FEB
:10064000307C2F72322B90E0847090709695879555
:10065000969587958295807F382B37B987B1807FB3
:10066000842B87B9369A3699FECF24B135B1C901AA
:100670000895009709F40895BC0180E090E03BDD07
:1006800008955527002480FF02C0060E571F660FED
:10069000771F6115710521F096958795009799F759
:1006A000952F802D0895FF27EE27BB27AA2760FFEF
:1006B00004C0A20FB31FE41FF51F220F331F441FF6
:1006C000551F969587957795679589F700977607D3
:1006D00071F7CF01BD010895AA1BBB1B51E107C0F3
:1006E000AA1FBB1FA617B70710F0A61BB70B881FC2
:1006F000991F5A95A9F780959095BC01CD01089551
:1007000097FB092E07260AD077FD04D0E5DF06D037
:1007100000201AF4709561957F4F0895F6F7909533
:1007200081959F4F089597FB092E05260ED057FD02
:1007300004D04BD00AD0001C38F450954095309529
:1007400021953F4F4F4F5F4F0895F6F79095809555
:10075000709561957F4F8F4F9F4F08952F923F92D5
:100760004F925F926F927F928F929F92AF92BF92C1
:10077000CF92DF92EF92FF920F931F93CF93DF936D
:10078000CDB7DEB7CA1BDB0B0FB6F894DEBF0FBECA
:10079000CDBF09942A88398848885F846E847D8417
:1007A0008C849B84AA84B984C884DF80EE80FD8019
:1007B0000C811B81AA81B981CE0FD11D0FB6F8948F
:1007C000DEBF0FBECDBFED010895A1E21A2EAA1B18
:1007D000BB1BFD010DC0AA1FBB1FEE1FFF1FA217F1
:1007E000B307E407F50720F0A21BB30BE40BF50BEE
:1007F000661F771F881F991F1A9469F76095709577
:10080000809590959B01AC01BD01CF010895F894AE
:02081000FFCF18
:10081200010000001F0311180C06060311180C0A30
:100822000512091402011008040201100804020151
:0408320010080400A6
:00000001FF
