:100000000EC028C027C026C016C324C023C022C0EB
:1000100021C020C07BC01EC01DC01CC01BC011243D
:100020001FBECFE5D2E0DEBFCDBF10E0A0E6B0E05E
:10003000E0EFF9E002C005900D92A438B107D9F7BE
:1000400010E0A4E8B0E001C01D92A13AB107E1F7C9
:100050009FD25AC0D5CFA0E0B0E0E0E3F0E075C495
:10006000EC01A880B980CA80DB80A114B104C1046E
:10007000D10441F484E2A82E89EDB82E8BE5C82E78
:1000800087E0D82EC601B5012DE133EF41E050E005
:1000900039D427EA31E440E050E0F4D37B018C010D
:1000A000C601B5012DE133EF41E050E02BD4CA0188
:1000B000B9012CEE34EF4FEF5FEFE4D36E0D7F1DEF
:1000C000801F911F97FF04C061507040804090488E
:1000D000688379838A839B839B01AC015F77B90135
:1000E000CA01CDB7DEB7EAE04CC4B5DF089580E6BB
:1000F00090E0B1DF08956093600070936100809399
:100100006200909363000895F89470C41F920F9258
:100110000FB60F9211242F933F934F935F936F93DA
:100120008F939F93AF93BF93EF93FF93809164005E
:10013000482F50E0A0E0B0E0FD01EC57FF4F808178
:10014000282F30E02115310581F0FD01EB59FF4FDB
:100150006081FD01EC58FF4FE08180E090E067BBDB
:10016000E8BB019682179307D0F32417350740F4B4
:10017000C90117BA18BA019684179507D0F39A01E6
:100180001196AF30B105C1F68FE0809395003093A2
:1001900094002093930017BA18BAFF91EF91BF9182
:1001A000AF919F918F916F915F914F913F912F915F
:1001B0000F900FBE0F901F901895DF92EF92FF9255
:1001C0000F931F93CF93DF93D82EFB018A01E90190
:1001D00041E06836740774F09B0128563140C9012C
:1001E00068E671E068D3CB0168E97EEF39D3F901A5
:1001F000E80FF91FF7FF0EC0CF018095909569E6D3
:1002000071E059D3CB0169E671E02AD3E759FE4F7B
:10021000E80FF91F0115110541F18FEF90E0801BE8
:10022000910BBE011DD3292F332727FD3A951CE3DF
:10023000E12EF12CCF016CE370E051D362307105F7
:1002400009F448C0633071053CF16430710509F46C
:10025000BDC0643071050CF497C06530710509F4B8
:1002600058C010E040E020E008C0CE019595879589
:1002700095958795182F482F282FED2DF0E0EC57F6
:10028000FF4F108345832287DF91CF911F910F91FC
:10029000FF90EF90DF9008956115710509F050C04F
:1002A000CE019595879595958795182FC21BD30BF1
:1002B000CF01BE01D5D26CE370E011D3620F731F82
:1002C0007595679575956795462F3595279535955D
:1002D0002795D3CFC9019595879595958795182F23
:1002E000CE019595879595958795482FCF016CE31D
:1002F00070E0F5D2C21BD30BBE01B2D26CE370E04A
:10030000EED2620F731F7595679575956795262FC9
:10031000B4CFCE019595879595958795182FC901EE
:100320009595879595958795482FCF016CE370E05B
:10033000D6D2C21BD30BB701681B790BCB01DCCF24
:100340006130710509F08DCFCF016CE370E0C7D249
:10035000BE01621B730BA701481B590BCA0180D257
:100360006CE370E0BCD2620F731F7595679575954D
:100370006795162FD595C795D595C7954C2F35956B
:1003800027953595279579CFC901959587959595A9
:100390008795182FCF016CE370E0A1D2BE01621BDC
:1003A000730BA701481B590BCA015AD26CE370E0CA
:1003B00096D2620F731F7595679575956795462F51
:1003C000D595C795D595C7952C2F57CFCF016CE301
:1003D00070E085D2BE01621B730B42D26CE370E009
:1003E0007ED2620F731F7595679575956795162F69
:1003F0003595279535952795422FD595C795D59550
:10040000C7952C2F3ACFEF92FF920F931F93CF9364
:10041000DF93E091A100F0E0EC57FF4F8FE3808382
:1004200068EE73E080E090E05DD1E091A100F0E043
:10043000EC57FF4F10826AEF70E080E090E052D1FD
:1004400086E990E060E070E0E3D04091A10084177D
:1004500029F086E990E060E070E0E1D035D17B01E1
:100460008C0180E09AEBABEDB0E0E80EF91E0A1FBC
:100470001B1F2AD16E157F058007910708F053C016
:10048000C8E6D1E021D16E157F058007910788F776
:10049000CE0168E671E023D2BC0180E04FEF50E06E
:1004A0002FEF30E08ADECE01429668E671E017D287
:1004B000BC0181E04FEF50E02FEF30E07EDECE0157
:1004C000849668E671E00BD2BC0182E04FEF50E009
:1004D0002FEF30E072DECE01C69668E671E0FFD104
:1004E000BC0183E04FEF50E02FEF30E066DECE013D
:1004F000885B9F4F68E671E0F2D1BC0184E04FEF6A
:1005000050E02FEF30E059DE6AE070E080E090E0EC
:10051000E9D0219709F0B6CFD7D06E157F058007B7
:10052000910708F4ADCF8091A10081508093A10084
:100530008F3018F08EE08093A10086E990E060E0B3
:1005400070E066D04091A100841729F086E990E020
:1005500060E070E064D03798479A85B7846885BFBB
:1005600085B7877E806185BF85B7806285BF7894B7
:10057000889564EF71E080E090E0B4D085B78F7D1E
:1005800085BFDF91CF911F910F91FF90EF9008955C
:100590000F93DF93CF9300D0CDB7DEB70FD104B662
:1005A00000FC2BC004B601FE0AC014BE8091A1005D
:1005B0008F5F8093A1008F3010F01092A10080E037
:1005C00090E00FE19C01220F331F3A83298381E0E1
:1005D0001BD181709070E981FA818E2B9F2B015085
:1005E00089F736D180E889BD83E083BF89B7806110
:1005F00089BF789408DF07DFFDCF14BE86E990E05D
:1006000060E070E005D08F30C0F68093A100D7CFB6
:10061000E199FECF7FBB6EBBE09A8DB30895E1995F
:10062000FECF1CBA7FBB6EBB4DBB0FB6F894E29AEF
:10063000E19A0FBE08951F920F920FB60F921124E8
:100640002F933F938F939F93AF93BF9380919B0082
:1006500090919C00A0919D00B0919E0030919F00D0
:10066000232F2D5F2D3758F50196A11DB11D209325
:100670009F0080939B0090939C00A0939D00B0935B
:100680009E008091970090919800A0919900B09160
:100690009A000196A11DB11D809397009093980038
:1006A000A0939900B0939A00BF91AF919F918F91C1
:1006B0003F912F910F900FBE0F901F9018952D57BF
:1006C0000296A11DB11DD3CF8FB7F89420919B0046
:1006D00030919C0040919D0050919E008FBFB901C8
:1006E000CA010895EF92FF920F931F937B018C0133
:1006F0002FB7F8948091970090919800A09199005D
:10070000B0919A003FB508B602FE05C03F3F19F010
:100710000196A11DB11D2FBFE114F10401051105C2
:1007200009F447C0BA2FA92F982F8827830F911D4E
:10073000A11DB11D880F991FAA1FBB1F880F991FEC
:10074000AA1FBB1FAC013FB7F8948091970090910E
:100750009800A0919900B0919A002FB508B602FEBA
:1007600005C02F3F19F00196A11DB11D3FBFBA2F43
:10077000A92F982F8827820F911DA11DB11D880FC9
:10078000991FAA1FBB1F880F991FAA1FBB1F841B7D
:10079000950B885E9340B8F20894E108F1080109CE
:1007A0001109E114F1040105110519F048515C4FDC
:1007B000CACF1F910F91FF90EF900895789480B762
:1007C000806880BF80B7806480BF8CB580648CBD3A
:1007D0008FEF8DBD80B7807F876080BF89B78460D1
:1007E00089BF83B7887F83BF8AB58C7F81608ABDCC
:1007F00083B7877F83BF83B7887F836083BF86B1DA
:10080000876086B9379A0895482F863008F0465099
:100810008091A00027B1382F3295330F330F307CF1
:100820002F72322B90E084709070969587959695F4
:1008300087958295807F382B37B987B1807F842B4D
:1008400087B9369A3699FECF24B135B1C9010895DA
:10085000009709F40895BC0180E090E04CDC089515
:100860005527002480FF02C0060E571F660F771F12
:100870006115710521F096958795009799F7952F49
:10088000802D0895FF27EE27BB27AA2760FF04C00D
:10089000A20FB31FE41FF51F220F331F441F551F64
:1008A000969587957795679589F70097760771F7FD
:1008B000CF01BD010895AA1BBB1B51E107C0AA1FB0
:1008C000BB1FA617B70710F0A61BB70B881F991FF1
:1008D0005A95A9F780959095BC01CD01089597FB95
:1008E000092E07260AD077FD04D0E5DF06D00020C8
:1008F0001AF4709561957F4F0895F6F7909581955C
:100900009F4F089597FB092E05260ED057FD04D062
:100910004BD00AD0001C38F4509540953095219565
:100920003F4F4F4F5F4F0895F6F790958095709524
:1009300061957F4F8F4F9F4F08952F923F924F9217
:100940005F926F927F928F929F92AF92BF92CF925F
:10095000DF92EF92FF920F931F93CF93DF93CDB768
:10096000DEB7CA1BDB0B0FB6F894DEBF0FBECDBFE0
:1009700009942A88398848885F846E847D848C84B1
:100980009B84AA84B984C884DF80EE80FD800C81BA
:100990001B81AA81B981CE0FD11D0FB6F894DEBF9D
:1009A0000FBECDBFED010895A1E21A2EAA1BBB1BFD
:1009B000FD010DC0AA1FBB1FEE1FFF1FA217B3072B
:1009C000E407F50720F0A21BB30BE40BF50B661F41
:1009D000771F881F991F1A9469F760957095809505
:1009E00090959B01AC01BD01CF010895F894FFCF14
:1009F000010000003F0311180C06060311180C0A31
:100A00000512091402011008040201100804020171
:040A100010080400C6
:00000001FF
