:100000002AC044C043C042C012CC40C03FC03EC022
:100010003DC03CC03BC03AC039C038C037C0E0C763
:1000200061CA55CA49CA3DCA33CA27CA1BCA11CABE
:1000300082C9FBC873C8DFC7D3CAA3CB97CB8BCB0E
:100040007FCB75CB6BCB5FCB53CB49CB3BCB2DCB96
:100050001FCB0ACB05CB11241FBECFE5D2E0DEBFFC
:10006000CDBF10E0A0E6B0E0E4E3FCE102C0059003
:100070000D92AE38B107D9F710E0AEE8B0E001C09C
:100080001D92AB3AB107E1F787DB5AC0B9CFA0E0C8
:10009000B0E0ECE4F0E07BCDEC01A880B980CA8050
:1000A000DB80A114B104C104D10441F484E2A82E80
:1000B00089EDB82E8BE5C82E87E0D82EC601B50194
:1000C0002DE133EF41E050E03FDD27EA31E440E04D
:1000D00050E0FADC7B018C01C601B5012DE133EF64
:1000E00041E050E031DDCA01B9012CEE34EF4FEFB1
:1000F0005FEFEADC6E0D7F1D801F911F97FF04C02C
:100100006150704080409048688379838A839B83E4
:100110009B01AC015F77B901CA01CDB7DEB7EAE058
:1001200052CDB5DF089580E690E0B1DF0895609389
:100130006000709361008093620090936300089563
:10014000F89476CDDF92EF92FF920F931F93CF93A7
:10015000DF93D82EFB018A01E90141E0683674077C
:1001600074F09B0128563140C90168E671E0C5DC96
:10017000CB0168E97EEF96DCF901E80FF91FF7FF84
:100180000EC0CF018095909569E671E0B6DCCB0199
:1001900069E671E087DCE759FE4FE80FF91F0115AA
:1001A000110541F18FEF90E0801B910BBE017ADCCD
:1001B000292F332727FD3A951CE3E12EF12CCF019F
:1001C0006CE370E0AEDC6230710509F448C0633066
:1001D00071053CF16430710509F4BDC064307105EE
:1001E0000CF497C06530710509F458C010E040E088
:1001F00020E008C0CE019595879595958795182F95
:10020000482F282FED2DF0E0E257FF4F1083458354
:100210002287DF91CF911F910F91FF90EF90DF9098
:1002200008956115710509F050C0CE019595879527
:1002300095958795182FC21BD30BCF01BE0132DCD9
:100240006CE370E06EDC620F731F759567957595B2
:100250006795462F3595279535952795D3CFC901B5
:100260009595879595958795182FCE0195958795A6
:1002700095958795482FCF016CE370E052DCC21B47
:10028000D30BBE010FDC6CE370E04BDC620F731F1D
:100290007595679575956795262FB4CFCE01959581
:1002A000879595958795182FC9019595879595956B
:1002B0008795482FCF016CE370E033DCC21BD30B72
:1002C000B701681B790BCB01DCCF6130710509F0F8
:1002D0008DCFCF016CE370E024DCBE01621B730B99
:1002E000A701481B590BCA01DDDB6CE370E019DC88
:1002F000620F731F7595679575956795162FD59540
:10030000C795D595C7954C2F359527953595279544
:1003100079CFC9019595879595958795182FCF0128
:100320006CE370E0FEDBBE01621B730BA701481B90
:10033000590BCA01B7DB6CE370E0F3DB620F731F8C
:100340007595679575956795462FD595C795D595FC
:10035000C7952C2F57CFCF016CE370E0E2DBBE01D5
:10036000621B730B9FDB6CE370E0DBDB620F731FC0
:100370007595679575956795162F359527953595DC
:100380002795422FD595C795D595C7952C2F3ACF50
:100390004F925F926F927F928F929F92AF92BF9295
:1003A000CF92DF92EF92FF920F931F93CF93DF9341
:1003B0006A017B0139012801A0E0B0E0BC01CD0158
:1003C00020E63AEE40E050E07FDB4B015C018C0C14
:1003D0009D1CAE1CBF1C8301CC24C3944FE0F42EA3
:1003E0006FDA681579058A059B0508F074C08C2DB5
:1003F000992787FD9095080F191F0415150511F40D
:10040000CC24CA940615170511F4CC24C39480E0BB
:10041000B8014FEF50E02FEF30E094DE81E0B801FB
:100420004FEF50E02FEF30E08DDE82E0B8014FEF6C
:1004300050E02FEF30E086DE83E0B8014FEF50E070
:100440002FEF30E07FDE84E0B8014FEF50E02FEF78
:1004500030E078DE80916400482F50E0C0E0D0E0CA
:10046000A0E0B0E0FD01E257FF4F808190E00097EF
:1004700089F0FD01E159FF4F6081FD01E258FF4F16
:10048000E08120E030E067BBE8BB2F5F3F4F2817DB
:100490003907C8F38417950738F417BA18BA0196C4
:1004A00084179507D0F3CA011196AF30B105D1F684
:1004B00017BA18BA2196C639D10591F690939E00C5
:1004C00080939D00F0929F00FBD9681579058A05FD
:1004D0009B0508F48CCFDF91CF911F910F91FF9076
:1004E000EF90DF90CF90BF90AF909F908F907F90D4
:1004F0006F905F904F9008959F92AF92BF92CF926E
:10050000DF92EF92FF920F931F93CF93DF937A01C5
:100510008B01A0E0B0E0BC01CD0120E63AEE40E066
:1005200050E0D2DA5B016C01AE0CBF1CC01ED11EC4
:10053000EE24E39401E010E0FF24F3945FE0952EB5
:10054000BFD96A157B058C059D0508F063C08E2D0B
:1005500081508E3308F00F25002309F46AC0E3941C
:10056000EE2031F4E12FF0E0E257FF4F10821F5FE1
:100570001F3008F45BC010E0E0E0F0E0E257FF4F0E
:10058000E08280916400482F50E0C0E0D0E0A0E01D
:10059000B0E0FD01E257FF4F8081282F30E02115A8
:1005A000310581F0FD01E159FF4F6081FD01E25805
:1005B000FF4FE08180E090E067BBE8BB01968217C7
:1005C0009307D0F32417350770F4C90117BA18BA86
:1005D000019684179507D0F3C901840F951FBC01BC
:1005E000621B730B9B011196AF30B10591F617BAE0
:1005F00018BA2196CC30D10551F630939E00209345
:100600009D0090929F005CD96A157B058C059D0525
:1006100008F49DCFDF91CF911F910F91FF90EF9044
:10062000DF90CF90BF90AF909F900895E12FF0E0C2
:10063000A5CFE82E95CF6F927F928F929F92AF9227
:10064000BF92CF92DF92EF92FF920F931F93DF93AF
:10065000CF93CDB7DEB72A970FB6F894DEBF0FBEA3
:10066000CDBF7C015A016B01FE0131968AE0DF01AA
:100670001D928A95E9F768E671E080E090E0E4D9A0
:100680007A83698368E671E080E090E0DDD97C835D
:100690006B8368E671E080E090E0D6D97E836D835D
:1006A00068E671E080E090E0CFD978876F8368E6F4
:1006B00071E080E090E0C8D97A87698700E010E0B7
:1006C000C801B70120E63AEE40E050E0FDD93B0119
:1006D0004C016A0C7B1C8C1C9D1C77E6E72E71E09C
:1006E000F72E6FE0A62EECD86615770588059905DC
:1006F00008F097C069817A81615070407A8369837C
:100700006F5F7F4F11F4FA82E98280E04FEF50E093
:100710002FEF30E017DD6B817C81615070407C836E
:100720006B836F5F7F4F11F4FC82EB8281E04FEFB0
:1007300050E02FEF30E006DD6D817E81615070402A
:100740007E836D836F5F7F4F11F4FE82ED8282E0C6
:100750004FEF50E02FEF30E0F5DC6F81788561508E
:10076000704078876F836F5F7F4F11F4F886EF8258
:1007700083E04FEF50E02FEF30E0E4DC69857A85CD
:10078000615070407A8769876F5F7F4F11F4FA86F6
:10079000E98684E04FEF50E02FEF30E0D3DC80912A
:1007A0006400482F50E000E010E0A0E0B0E0FD0160
:1007B000E257FF4F808190E0009789F0FD01E159F9
:1007C000FF4F6081FD01E258FF4FE08120E030E003
:1007D00067BBE8BB2F5F3F4F28173907C8F3841763
:1007E000950738F417BA18BA019684179507D0F30D
:1007F000CA011196AF30B105D1F617BA18BA0F5F1A
:100800001F4F0233110589F690939E0080939D003F
:10081000A0929F0055D8661577058805990508F4BC
:1008200069CF2A960FB6F894DEBF0FBECDBFCF9129
:10083000DF911F910F91FF90EF90DF90CF90BF90CD
:10084000AF909F908F907F906F9008952F923F92DE
:100850004F925F926F927F928F929F92AF92BF92D0
:10086000CF92DF92EF92FF920F931F93DF93CF937C
:10087000CDB7DEB72F970FB6F894DEBF0FBECDBF52
:100880004C016A017B01122F302E68E671E080E096
:1008900090E0DAD85B01CE0101969D878C87DC0160
:1008A000EAE6F0E085E001900D928150E1F7FE016B
:1008B0003696FF87EE87DF01E5E6F0E085E0019000
:1008C0000D928150E1F7B40180E090E020E63AEE2D
:1008D00040E050E0F9D83B014C016C0C7D1C8E1CB3
:1008E0009F1C22242394412E5524EAD766157705B0
:1008F0008805990508F0D2C0F1E03F1609F41BC144
:1009000022E0321609F468C12981822F90E08C3FE1
:1009100091050CF007C1233008F00BC18E818225B0
:100920008E83A40CB51C98E6A91691E0B90610F0C8
:10093000AA24BB24882309F0F2C0225029832A81EB
:10094000822F90E08C3F91050CF0E2C0233008F03C
:100950003AC18F8182258F83A40CB51CE8E6AE16C0
:10096000E1E0BE0610F0AA24BB24882309F0CDC024
:1009700022502A832B81822F90E08C3F91050CF02E
:10098000BDC0233008F01DC1888582258887A40C4E
:10099000B51CF8E6AF16F1E0BF0610F0AA24BB24A0
:1009A000882309F0A8C022502B832C81822F90E04D
:1009B0008C3F91050CF098C0233008F000C1898568
:1009C00082258987A40CB51C98E6A91691E0B90682
:1009D00010F0AA24BB24882309F083C022502C8362
:1009E0002D81822F90E08C3F91050CF073C0233055
:1009F00008F0E3C08A8582258A87A40CB51CE8E646
:100A0000AE16E1E0BE0610F0AA24BB24882309F448
:100A10005EC02E5F2D8380916400482F50E000E07F
:100A200010E0A0E0B0E0FD01E257FF4F808190E0D0
:100A3000009789F0FD01E159FF4F6081FD01E25807
:100A4000FF4FE08120E030E067BBE8BB2F5F3F4F06
:100A500028173907C8F38417950738F417BA18BA56
:100A6000019684179507D0F3CA011196AF30B105EE
:100A7000D1F617BA18BA0F5F1F4F0431110589F666
:100A800090939E0080939D009FE090939F0018D7C5
:100A9000661577058805990508F42ECF2F960FB6B1
:100AA000F894DEBF0FBECDBFCF91DF911F910F91A4
:100AB000FF90EF90DF90CF90BF90AF909F908F907E
:100AC0007F906F905F904F903F902F9008952250AD
:100AD0002D83A1CF8A8582258A87233008F08FCF86
:100AE0008CCF2E5F2C837CCF89858225898723300C
:100AF00008F06ACF67CF2E5F2B8357CF888582257A
:100B00008887233008F045CF42CF2E5F2A8332CF2B
:100B10008F8182258F83233008F020CF1DCF2E5F59
:100B200029830DCF8E8182258E83233008F0FBCE62
:100B3000F8CE8E81FFCEE6E0CE2ED12CCC0EDD1E7F
:100B40007E010894E11CF11C1EC0F6018081822503
:100B500080839330F0F128E6A21621E0B20610F06F
:100B6000AA24BB24882329F59250F7019083089486
:100B7000E11CF11C0894C11CD11C8E859F85E816D0
:100B8000F90609F448CFF7019081092F10E08E2D66
:100B9000FC858F1BB5014EEF50E098019B87D2DAA0
:100BA0009B850C3F11058CF6933078F0F60180811F
:100BB000D9CF9E5FF7019083DACF8A8527CF8985C9
:100BC0000ACF8885EDCE8F81D0CEF6018081822537
:100BD0008083A40CB51CBFCFF6E0CF2ED12CCC0E59
:100BE000DD1E7E010894E11CF11C1EC0F60180810F
:100BF000822580839330B0F128E6A21621E0B20668
:100C000010F0AA24BB24882329F59250F701908381
:100C10000894E11CF11C0894C11CD11C8E859F8591
:100C2000E816F90609F4F7CEF7019081092F10E0D4
:100C30008E2DFC858F1BB501A8012EEF30E09B8720
:100C400081DA9B850C3F11058CF6933038F0F60164
:100C50008081D9CF9E5FF7019083DACFF601808142
:100C600082258083A40CB51CC7CF8F929F92AF9230
:100C7000BF92CF92DF92EF92FF920F931F93CF9389
:100C8000DF93EC014A015B0110E068E671E080E06F
:100C900090E0DAD69B01AC01812FB9014FEF50E013
:100CA0002FEF30E04FDA1F5F153079F7BE0180E09B
:100CB00090E020E63AEE40E050E006D76B017C0180
:100CC000C80CD91CEA1CFB1C0FE065E070E080E05A
:100CD00090E0BAD6162F68E671E080E090E0B4D6D6
:100CE0009B01AC01812FB9014FEF50E02FEF30E0B5
:100CF00029DA80916400482F50E0C0E0D0E0A0E005
:100D0000B0E0FD01E257FF4F808190E0009789F04D
:100D1000FD01E159FF4F6081FD01E258FF4FE08185
:100D200020E030E067BBE8BB2F5F3F4F2817390753
:100D3000C8F38417950738F417BA18BA01968417C0
:100D40009507D0F3CA011196AF30B105D1F617BAA5
:100D500018BA219627E0C03DD20789F690939E00ED
:100D600080939D0000939F00ABD56C157D058E058B
:100D70009F0508F4AACFDF91CF911F910F91FF90AB
:100D8000EF90DF90CF90BF90AF909F908F9008959D
:100D90002F923F924F925F926F927F928F929F928B
:100DA000AF92BF92CF92DF92EF92FF920F931F9379
:100DB000CF93DF936A017B01522EA0E0B0E0BC012B
:100DC000CD0120E63AEE40E050E07ED64B015C01DA
:100DD0008C0C9D1CAE1CBF1C602E77242224332457
:100DE00026183708B8E6CB2EB1E0DB2EC618D70898
:100DF000AFE04A2E65D5681579058A059B0508F090
:100E0000AFC0760108E611E05BD5681579058A0563
:100E10009B0580F780E090E0652D70E082D6C801E8
:100E2000860F971F68E671E07CD6BC0180E04FEF2B
:100E300050E02FEF30E086D988E691E0652D70E034
:100E400070D6C801860F971F68E671E06AD6BC01AC
:100E500081E04FEF50E02FEF30E074D980ED92E069
:100E6000652D70E05ED6C801860F971F68E671E0B9
:100E700058D6BC0182E04FEF50E02FEF30E062D94E
:100E800088E394E0652D70E04CD6C801860F971F6B
:100E900068E671E046D6BC0183E04FEF50E02FEFEB
:100EA00030E050D980EA95E0652D70E03AD6C8016F
:100EB000860F971F68E671E034D6BC0184E04FEFDF
:100EC00050E02FEF30E03ED980916400482F50E091
:100ED000C0E0D0E0A0E0B0E0FD01E257FF4F80812C
:100EE00090E0009789F0FD01E159FF4F6081FD011D
:100EF000E258FF4FE08120E030E067BBE8BB2F5FA6
:100F00003F4F28173907C8F38417950738F417BAE5
:100F100018BA019684179507D0F3CA011196AF301D
:100F2000B105D1F617BA18BA2196C233D10591F698
:100F300090939E0080939D0040929F00020D131D90
:100F4000E20CF31CC701860D971D181619060CF448
:100F50005BCFB6D4681579058A059B0508F451CF97
:100F6000DF91CF911F910F91FF90EF90DF90CF9085
:100F7000BF90AF909F908F907F906F905F904F90B9
:100F80003F902F9008955F926F927F928F929F92E1
:100F9000AF92BF92CF92DF92EF92FF920F931F9387
:100FA000CF93DF9380E090E02FE0522E80319105C7
:100FB00074F06EE070E080E090E046D5FB016D30AB
:100FC000710558F080E090E08031910594F7FC01C4
:100FD000E257FF4F10820196E9CFE15FFF4F09947E
:100FE0006FD4AB01BC0185E090E024E101E0D0DEEC
:100FF00080E090E0DBCF68E671E080E090E024D50F
:101000007B018C013B0198E7892E912C8E0C9F1C53
:1010100057D45B016C0180EE93E9A4E0B0E0A80E28
:10102000B91ECA1EDB1E11E04BD46A157B058C0568
:101030009D0540F6812F992787FD9095E80EF91EB2
:101040008E149F0409F41FEF6E147F0409F411E05D
:1010500080E0B7014FEF50E02FEF30E073D881E030
:10106000B7014FEF50E02FEF30E06CD882E0B701CE
:101070004FEF50E02FEF30E065D883E0B7014FEF3E
:1010800050E02FEF30E05ED884E0B7014FEF50E042
:101090002FEF30E057D880916400482F50E0C0E037
:1010A000D0E0A0E0B0E0FD01E257FF4F8081282FA3
:1010B00030E02115310581F0FD01E159FF4F6081DC
:1010C000FD01E258FF4FE08180E090E067BBE8BBA4
:1010D000019682179307D0F32417350770F4C901DE
:1010E00017BA18BA019684179507D0F3C901840F6F
:1010F000951FBC01621B730B9B011196AF30B105AC
:1011000091F617BA18BA2196C639D10551F630931F
:101110009E0020939D0050929F0086CFD1D36B01FB
:101120007C0160EE73E984E090E0C60ED71EE81EF5
:10113000F91E00EF10E0BB24B394C2D36C157D05FB
:101140008E059F0508F03ECF8B2D992787FD909542
:10115000080F191F71E00736170709F463C0003F35
:10116000110511F4BB24B39480E0B8014FEF50E0B7
:101170002FEF30E0E7D781E0B8014FEF50E02FEFDD
:1011800030E0E0D782E0B8014FEF50E02FEF30E0E1
:10119000D9D783E0B8014FEF50E02FEF30E0D2D73E
:1011A00084E0B8014FEF50E02FEF30E0CBD78091D3
:1011B0006400482F50E0C0E0D0E0A0E0B0E0FD01C6
:1011C000E257FF4F808190E0009789F0FD01E159DF
:1011D000FF4F6081FD01E258FF4FE08120E030E0E9
:1011E00067BBE8BB2F5F3F4F28173907C8F3841749
:1011F000950738F417BA18BA019684179507D0F3F3
:10120000CA011196AF30B105D1F617BA18BA2196B6
:10121000C639D10591F690939E0080939D0050921F
:101220009F008BCFBB24BA949FCF4AD36B017C0124
:1012300080EE93E9A4E0B0E0C80ED91EEA1EFB1EC2
:1012400008E710E0BB24B3943BD36C157D058E05F5
:101250009F0508F0B7CE8B2D992787FD9095080F35
:10126000191F003F110509F463C00837110511F477
:10127000BB24B39480E0B8014FEF50E02FEF30E093
:1012800061D781E0B8014FEF50E02FEF30E05AD73F
:1012900082E0B8014FEF50E02FEF30E053D783E00A
:1012A000B8014FEF50E02FEF30E04CD784E0B801A9
:1012B0004FEF50E02FEF30E045D780916400482F8A
:1012C00050E0C0E0D0E0A0E0B0E0FD01E257FF4F09
:1012D000808190E0009789F0FD01E159FF4F608126
:1012E000FD01E258FF4FE08120E030E067BBE8BB42
:1012F0002F5F3F4F28173907C8F38417950738F435
:1013000017BA18BA019684179507D0F3CA01119637
:10131000AF30B105D1F617BA18BA2196C639D10542
:1013200091F690939E0080939D0050929F008CCFE9
:10133000BB24BA949FCFC4D26B017C0160EE73E9E9
:1013400084E090E0C60ED71EE81EF91E00E010E013
:10135000BB24B394B5D26C157D058E059F0508F0AE
:1013600031CE8B2D992787FD9095080F191F0837CF
:10137000110509F46BC00115110511F4BB24B394D8
:1013800080E0B8014FEF50E02FEF30E0DBD681E096
:10139000B8014FEF50E02FEF30E0D4D682E0B80133
:1013A0004FEF50E02FEF30E0CDD683E0B8014FEFA4
:1013B00050E02FEF30E0C6D684E0B8014FEF50E0A8
:1013C0002FEF30E0BFD680916400482F50E0C0E09E
:1013D000D0E0A0E0B0E0FD01E257FF4F8081282F70
:1013E00030E02115310581F0FD01E159FF4F6081A9
:1013F000FD01E258FF4FE08180E090E067BBE8BB71
:10140000019682179307D0F32417350770F4C901AA
:1014100017BA18BA019684179507D0F3C901840F3B
:10142000951FBC01621B730B9B011196AF30B10578
:1014300091F617BA18BA2196C639D10551F63093EC
:101440009E0020939D0050929F0084CFBB24BA94AD
:1014500097CF36D2AB01BC0185E090E0ECD880E0BC
:1014600090E0A4CD2DD2AB01BC0185E090E024E05A
:1014700001E0ECD980E090E099CD22D2AB01BC0133
:1014800085E090E021E001E0E1D980E090E08ECDC0
:1014900017D2AB01BC0185E090E0E7DB80E090E093
:1014A00085CD0ED2AB01BC0185E090E025E002E0E5
:1014B0006FDC80E090E07ACD03D2AB01BC0185E027
:1014C00090E025E001E064DC80E090E06FCDF8D1B1
:1014D000AB01BC0185E090E024E105E059DC80E04F
:1014E00090E064CDEDD1AB01BC0185E090E024E15A
:1014F00002E04EDC80E090E059CDCF92DF92EF9297
:10150000FF920F931F93CF93DF938091AB00C82F6F
:10151000D0E0C257DF4F8FE3888380916400482F6B
:1015200050E000E010E0A0E0B0E0FD01E257FF4F26
:101530008081282F30E02115310581F0FD01E1592E
:10154000FF4F6081FD01E258FF4FE08180E090E0B5
:1015500067BBE8BB019682179307D0F324173507C2
:1015600070F4C90117BA18BA019684179507D0F319
:10157000C901840F951FBC01621B730B9B0111965F
:10158000AF30B10591F617BA18BA0F5F1F4F77E069
:10159000003D170741F630939E0020939D008FE099
:1015A00080939F0018826AEF70E080E090E096D10F
:1015B00080EA90E060E070E027D14091AB008417B2
:1015C00039F080EA90E060E070E025D14091AB0016
:1015D000E42FF0E0EF30F10568F4E45EFF4F09948A
:1015E0006FD1AB01BC0180EF90E024E101E0D0DBE2
:1015F0004091AB00842F81508093AB008F3018F066
:101600008EE08093AB0080EA90E060E070E0FCD078
:101610004091AB00841729F080EA90E060E070E030
:10162000FAD03798479A85B7846885BF85B7877E93
:10163000806185BF85B7806285BF7894889564EFA7
:1016400071E080E090E04AD185B78F7D85BFDF9162
:10165000CF911F910F91FF90EF90DF90CF90089561
:1016600092DC4091AB00C6CF68E671E080E090E08C
:10167000EBD16B017C018B0123D1AB01BC0108587C
:101680001F4F80EF90E0960183D64091AB00B2CF20
:1016900017D1AB01BC0180EF90E020EF30E007E60E
:1016A00011E076D64091AB00A5CF0AD1AB01BC01C9
:1016B00080EF90E028E730E000EF10E069D640913D
:1016C000AB0098CFFDD0AB01BC0180EF90E020E0F3
:1016D00030E008E710E05CD64091AB008BCFF0D053
:1016E000AB01BC0180EF90E007D74091AB0082CF07
:1016F000E7D0AB01BC0180EF90E024E001E0A6D888
:101700004091AB0077CFDCD0AB01BC0180EF90E023
:1017100021E001E09BD84091AB006CCFD1D0AB0170
:10172000BC0180EF90E087D74091AB0063CFC8D079
:10173000AB01BC0180EF90E098DA4091AB005ACF4A
:10174000BFD0AB01BC0180EF90E025E002E020DBE0
:101750004091AB004FCFB4D0AB01BC0180EF90E023
:1017600025E001E015DB4091AB0044CFA9D0AB01EF
:10177000BC0180EF90E024E105E00ADB4091AB0082
:1017800039CF9ED0AB01BC0180EF90E024E102E0B4
:10179000FFDA4091AB002ECF0F93DF93CF9300D0B1
:1017A000CDB7DEB707D104B600FC23C004B601FEF6
:1017B0000AC014BE8091AB008F5F8093AB008F3066
:1017C00010F01092AB0080E090E00FE19C01220F3E
:1017D000331F3A83298381E013D181709070E981AE
:1017E000FA818E2B9F2B015089F754D186DE85DE3E
:1017F000FDCF14BE80EA90E060E070E005D08F304D
:1018000000F78093AB00DFCFE199FECF7FBB6EBBCB
:10181000E09A8DB30895E199FECF1CBA7FBB6EBBF1
:101820004DBB0FB6F894E29AE19A0FBE08951F924D
:101830000F920FB60F9211242F933F938F939F9384
:10184000AF93BF938091A5009091A600A091A700AF
:10185000B091A8003091A900232F2D5F2D3758F5A6
:101860000196A11DB11D2093A9008093A50090931E
:10187000A600A093A700B093A8008091A10090912A
:10188000A200A091A300B091A4000196A11DB11DDA
:101890008093A1009093A200A093A300B093A40012
:1018A000BF91AF919F918F913F912F910F900FBE5C
:1018B0000F901F9018952D570296A11DB11DD3CFE3
:1018C0008FB7F8942091A5003091A6004091A70011
:1018D0005091A8008FBFB901CA010895EF92FF92FD
:1018E0000F931F937B018C012FB7F8948091A10077
:1018F0009091A200A091A300B091A4003FB508B6BA
:1019000002FE05C03F3F19F00196A11DB11D2FBF7A
:10191000E114F1040105110509F447C0BA2FA92FFC
:10192000982F8827830F911DA11DB11D880F991F26
:10193000AA1FBB1F880F991FAA1FBB1FAC013FB76F
:10194000F8948091A1009091A200A091A300B09181
:10195000A4002FB508B602FE05C02F3F19F001966E
:10196000A11DB11D3FBFBA2FA92F982F8827820F25
:10197000911DA11DB11D880F991FAA1FBB1F880FA4
:10198000991FAA1FBB1F841B950B885E9340B8F25A
:101990000894E108F10801091109E114F1040105B5
:1019A000110519F048515C4FCACF1F910F91FF905C
:1019B000EF900895789480B7806880BF80B7806486
:1019C00080BF8CB580648CBD8FEF8DBD80B7807F6C
:1019D000876080BF89B7846089BF83B7887F83BFF2
:1019E0008AB58C7F81608ABD83B7877F83BF83B7C9
:1019F000887F836083BF86B1876086B9379A0895F0
:101A0000482F863008F046508091AA0027B1382F21
:101A10003295330F330F307C2F72322B90E084706D
:101A2000907096958795969587958295807F382BAF
:101A300037B987B1807F842B87B9369A3699FECF24
:101A400024B135B1C9010895EF92FF920F931F930E
:101A50007B018C01611571058105910559F420E028
:101A600030E040E050E0B901CA011F910F91FF90B2
:101A7000EF90089558D3A801970166D0AC01CB012F
:101A8000DA019C01AD01B901CA011F910F91FF90CC
:101A9000EF900895009709F40895BC0180E090E06C
:101AA00046D308955527002480FF02C0060E571F15
:101AB000660F771F6115710521F096958795009740
:101AC00099F7952F802D0895FF27EE27BB27AA278A
:101AD00060FF04C0A20FB31FE41FF51F220F331FC6
:101AE000441F551F969587957795679589F70097B9
:101AF000760771F7CF01BD010895AA1BBB1B51E109
:101B000007C0AA1FBB1FA617B70710F0A61BB70B6D
:101B1000881F991F5A95A9F780959095BC01CD0112
:101B2000089597FB092E07260AD077FD04D0E5DF3C
:101B300006D000201AF4709561957F4F0895F6F74E
:101B4000909581959F4F089597FB092E05260ED0FD
:101B500057FD04D04BD00AD0001C38F45095409566
:101B6000309521953F4F4F4F5F4F0895F6F7909571
:101B70008095709561957F4F8F4F9F4F08952F925D
:101B80003F924F925F926F927F928F929F92AF920D
:101B9000BF92CF92DF92EF92FF920F931F93CF935A
:101BA000DF93CDB7DEB7CA1BDB0B0FB6F894DEBFF1
:101BB0000FBECDBF09942A88398848885F846E8417
:101BC0007D848C849B84AA84B984C884DF80EE8061
:101BD000FD800C811B81AA81B981CE0FD11D0FB66A
:101BE000F894DEBF0FBECDBFED010895A1E21A2E1D
:101BF000AA1BBB1BFD010DC0AA1FBB1FEE1FFF1FB1
:101C0000A217B307E407F50720F0A21BB30BE40B00
:101C1000F50B661F771F881F991F1A9469F7609547
:101C20007095809590959B01AC01BD01CF01089501
:041C3000F894FFCF56
:101C3400010000003F0101010101251D150D0503EF
:101C440011180C06060311180C0A051209140201D6
:0E1C5400100804020110080402011008040028
:00000001FF
