:100000000C9461000C947E000C947E000C947E0095
:100010000C947E000C947E000C947E000C947E0068
:100020000C947E000C947E000C947E000C947E0058
:100030000C947E000C94F8050C947E000C947E00C9
:100040000C940F080C947E000C947E000C947E009F
:100050000C947E000C947E000C947E000C947E0028
:100060000C947E000C947E00000000002400270009
:100070002A0000000000250028002B0000000000DE
:1000800023002600290004040404040404040202DA
:100090000202020203030303030301020408102007
:1000A0004080010204081020010204081020000012
:1000B0000007000201000003040600000000000029
:1000C000000011241FBECFEFD8E0DEBFCDBF11E08E
:1000D000A0E0B1E0E4E6F5E102C005900D92AE3299
:1000E000B107D9F711E0AEE2B1E001C01D92AF3423
:1000F000B107E1F70E94ED070C94E1000C940000B9
:10010000A0E0B0E0E6E8F0E00C944B0AEC01A88037
:10011000B980CA80DB80A114B104C104D10441F4C8
:1001200084E2A82E89EDB82E8BE5C82E87E0D82E64
:10013000C601B5012DE133EF41E050E00E94280AED
:1001400027EA31E440E050E00E94F6097B018C018F
:10015000C601B5012DE133EF41E050E00E94280ACD
:10016000CA01B9012CEE34EF4FEF5FEF0E94F609A0
:100170006E0D7F1D801F911F97FF04C0615070405E
:1001800080409048688379838A839B839B01AC017C
:100190005F77B901CA01CDB7DEB7EAE00C94670A10
:1001A0000E948000089580E091E00E948000089500
:1001B0006093000170930101809302019093030109
:1001C0000895F8940C94B00AFF920F931F93CF9365
:1001D000DF93F82EFB01890102C0E856F14021E0CF
:1001E000E836F207D4F702C0E759FE4FF7FDFCCF1F
:1001F0004115510521F4B8019801C801D0C08FEF15
:1002000090E0841B950BAC01409FC001419F900D75
:10021000509F900D1124C92FDD27C7FDDA952CE3DF
:1002200030E0CF016CE370E00E94150A6230710586
:1002300009F44CC0633071053CF461157105B9F0E7
:100240006130710569F427C06430710509F473C029
:10025000643071050CF454C06530710509F484C034
:1002600060E070E020E030E080E090E098C0C801FD
:100270008C1B9D0B9C01E29FC001E39F900DF29FA0
:10028000900D11246CE370E00E94150A9B012C0F65
:100290003D1FB80119C0CF016CE370E00E94150A40
:1002A000281B390BC8018C1B9D0BAC01249FC0017E
:1002B000259F900D349F900D11246CE370E00E94F7
:1002C000150A6C0F7D1F9801CE0169C0CF016CE348
:1002D00070E00E94150A98012C1B3D0BAC01429F57
:1002E000C001439F900D529F900D11246CE370E06C
:1002F0000E94150ACB018C0F9D1FBE0198014FC0B3
:10030000CF016CE370E00E94150A281B390BC8016D
:100310008C1B9D0BAC01249FC001259F900D349F29
:10032000900D11246CE370E00E94150A9B012C0FC4
:100330003D1FBE0117C0CF016CE370E00E94150A9B
:1003400098012C1B3D0BAC01429FC001439F900DB7
:10035000529F900D11246CE370E00E94150A6C0FFF
:100360007D1F9E01C8011BC0CF016CE370E00E949D
:10037000150A281B390BC8018C1B9D0BAC01249F4F
:10038000C001259F900D349F900D11246CE370E007
:100390000E94150ACB018C0F9D1FB8019E01EF2D05
:1003A000F0E0E25DFE4F53E0759567955A95E1F7F1
:1003B000608343E0359527954A95E1F7258323E04F
:1003C000959587952A95E1F78287DF91CF911F91C7
:1003D0000F91FF9008955F926F927F928F929F92FC
:1003E000AF92BF92CF92DF92EF92FF920F931F9343
:1003F000CF93DF936A017B01522EA0E0B0E0BC01F5
:10040000CD0120E63AEE40E050E00E94F6096C0D86
:100410007D1D8E1D9F1D609341017093420180934D
:10042000430190934401802E992466247724681810
:100430007908E8E6AE2EE1E0BE2EA818B9080E94C1
:100440005708209141013091420140914301509160
:100450004401621773078407950708F042C06501DD
:1004600078E6E72E71E0F72E0E94570820914101AF
:10047000309142014091430150914401621773074A
:1004800084079507E0F610E0C0E0D0E0CE01652DCE
:1004900070E00E94150ACB018E0D9F1D68E671E089
:1004A0000E94150ABC01812F4FEF50E02FEF30E082
:1004B0000E94E4001F5FC859DE4F153039F764E130
:1004C00070E080E090E00E946508E60CF71CC60C26
:1004D000D71CC601880D991D181619060CF0AFCF50
:1004E000C3CFDF91CF911F910F91FF90EF90DF90DD
:1004F000CF90BF90AF909F908F907F906F905F90C4
:1005000008958F929F92AF92BF92CF92DF92EF9217
:10051000FF920F931F93CF93DF936A017B015901E1
:100520004801A0E0B0E0BC01CD0120E63AEE40E099
:1005300050E00E94F6096C0D7D1D8E1D9F1D60937D
:100540004101709342018093430190934401E5017E
:1005500001E00E94570820914101309142014091F1
:10056000430150914401621773078407950708F50A
:10057000802F992787FD9095C80FD91FC815D905D9
:1005800009F40FEFCA15DB0509F401E010E0812F33
:10059000BE014FEF50E02FEF30E00E94E4001F5FFC
:1005A0001530A9F763E270E080E090E00E946508F2
:1005B000D0CFDF91CF911F910F91FF90EF90DF90FF
:1005C000CF90BF90AF909F908F900895CF92DF9281
:1005D000EF92FF920F931F93DF93CF93CDB7DEB7C8
:1005E0002B970FB6F894DEBF0FBECDBF7A018B01FB
:1005F000A0E0B0E0BC01CD0120E63AEE40E050E0E2
:100600000E94F6096E0D7F1D801F911F60934101AE
:100610007093420180934301909344018E010F5FD8
:100620001F4F8AE0F80111928A95E9F768E671E0B8
:1006300080E090E00E94AE097A83698368E671E009
:1006400080E090E00E94AE097C836B8368E671E0F5
:1006500080E090E00E94AE097E836D8368E671E0E1
:1006600080E090E00E94AE0978876F8368E671E0D1
:1006700080E090E00E94AE097A8769876801F7E61A
:10068000EF2EF1E0FF2E0E9457082091410130919A
:10069000420140914301509144016217730784075E
:1006A000950718F5860190E0F8016081718161502D
:1006B0007040718360836F5F7F4F11F4F182E0823D
:1006C000892F4FEF50E02FEF30E09B870E94E4002E
:1006D0009B859F5F0E5F1F4F953031F76AE070E09A
:1006E00080E090E00E946508CECF2B960FB6F8947C
:1006F000DEBF0FBECDBFCF91DF911F910F91FF9055
:10070000EF90DF90CF900895EF92FF920F931F9399
:100710007A018B01A0E0B0E0BC01CD0120E63AEE09
:1007200040E050E00E94F6096E0D7F1D801F911F72
:10073000609341017093420180934301909344017F
:1007400001E0EE24E39410E0FF24F3940E945708A4
:100750002091410130914201409143015091440167
:10076000621773078407950708F5802F81508E3133
:1007700008F0EF24EE2011F4082F01C00F5F0023D2
:1007800031F4E12FF0E0E25DFE4F10821F5F1F3079
:1007900008F010E0E12FF0E0E25DFE4F008368E03A
:1007A00070E080E090E00E946508D0CF1F910F912B
:1007B000FF90EF9008954F925F926F927F928F9289
:1007C0009F92AF92BF92CF92DF92EF92FF920F93E0
:1007D0001F93DF93CF93CDB7DEB72A970FB6F89468
:1007E000DEBF0FBECDBF7C014A015B01122F502E30
:1007F00068E671E080E090E00E94AE096B01DE01E6
:100800001196EBE0F1E085E001900D928150E1F767
:10081000DE011696E6E0F1E085E001900D92815050
:10082000E1F7B70180E090E020E63AEE40E050E0EA
:100830000E94F609680D791D8A1D9B1D6093410178
:100840007093420180934301909344013E010894C8
:10085000611C711CA6E08A2E912C8C0E9D1E4424D6
:100860004394A12EBB240E9457082091410130914E
:10087000420140914301509144016217730784077C
:10088000950708F04AC074018301802F861991E012
:10089000591639F4F8012081B6014EEF50E030E0EE
:1008A00009C0F2E05F1641F4F8014081B60150E062
:1008B0002EEF30E00E94E400F8012081822F90E0CA
:1008C0008C3F910514F4233078F4F701808184255E
:1008D0008083233010F4CA0CDB1CF8E6CF16F1E05D
:1008E000DF0610F0CC24DD24F7018081882311F08D
:1008F0002E5F01C02250F80120830F5F1F4F089424
:10090000E11CF11C0815190509F0BFCF63E070E088
:1009100080E090E00E946508A6CF2A960FB6F89472
:10092000DEBF0FBECDBFCF91DF911F910F91FF9022
:10093000EF90DF90CF90BF90AF909F908F907F907F
:100940006F905F904F9008958F929F92AF92BF9259
:10095000CF92DF92EF92FF920F931F93CF93DF938B
:100960007C015A016B0168E671E080E090E00E9432
:10097000AE094B0100E010E0C801B70120E63AEEF5
:1009800040E050E00E94F6096A0D7B1D8C1D9D1D04
:10099000609341017093420180934301909344011D
:1009A00010E0812FB4014FEF50E020E830E00E94CA
:1009B000E4001F5F1530A9F70E94570820914101FC
:1009C00030914201409143015091440162177307F5
:1009D00084079507E0F568E270E080E090E02CE3A2
:1009E00030E040E050E00E94D0098401060F171F5C
:1009F00002C00856114081E008361807D4F7EE24EB
:100A000024C08E2DBE014FEF50E02FEF30E00E944A
:100A1000E400219681E0C936D80714F0C0E0D0E0A8
:100A200061E070E080E090E00E946508C017D107A7
:100A300041F768EC70E080E090E00E946508E39484
:100A400085E0E81611F44E01B7CFE401EFCFDF9156
:100A5000CF911F910F91FF90EF90DF90CF90BF90BB
:100A6000AF909F908F900895CF92DF92EF92FF9278
:100A70000F931F93BAC0FC01E25DFE4F10820196F6
:100A800080319105C4F36EE070E080E090E00E9458
:100A9000AE096530710509F45FC066307105B4F4C4
:100AA00062307105E9F16330710544F46115710537
:100AB00031F16130710509F098C029C063307105CA
:100AC000C1F16430710509F090C03EC06830710515
:100AD00009F461C0693071054CF46630710509F4A0
:100AE00046C06730710509F080C04AC069307105A1
:100AF00009F45CC06A30710509F077C062C00E94D9
:100B00005708AB01BC0185E090E024E110C00E94D1
:100B10005708AB01BC0185E090E024E105E011C07D
:100B20000E945708AB01BC0185E090E025E001E0A0
:100B300008C00E945708AB01BC0185E090E025E0A9
:100B400002E00E94EB0151C00E945708AB01BC01BA
:100B500085E090E021E007C00E945708AB01BC018E
:100B600085E090E024E001E00E94DB033EC00E94AB
:100B70005708AB01BC0185E090E00E94A40435C099
:100B80000E945708AB01BC0185E090E020E030E016
:100B900008E710E028C00E945708AB01BC0185E0BF
:100BA00090E028E730E000EF10E01DC00E945708F9
:100BB000AB01BC0185E090E020EF30E007E611E0FA
:100BC00012C068E671E080E090E00E94AE096B011F
:100BD0007C018B010E945708AB01BC0108581F4FD4
:100BE00085E090E096010E94810280E090E048CF8D
:100BF0001F920F920FB60F9211242F933F934F9392
:100C00005F936F937F938F939F93AF93BF93CF9394
:100C1000DF93EF93FF9382E061E00E945A09809195
:100C20000401C82FD0E020913D0130913E0160E0E9
:100C300022C0862F90E0FC01E25DFE4F208130E073
:100C400040E050E0DC01A05FBE4FFC01E15EFE4FE2
:100C500006C08C9184B9808185B94F5F5F4F421780
:100C60005307B8F304C014B815B82F5F3F4F2C17C3
:100C70003D07C8F36F5F6F30E1F615B830933E0162
:100C800020933D0160933F0181E08093400182E029
:100C900060E00E945A09FF91EF91DF91CF91BF91DF
:100CA000AF919F918F917F916F915F914F913F9104
:100CB0002F910F900FBE0F901F90189585E491E033
:100CC00060E070E00E94FC078F3018F480934F01C1
:100CD000089510924F0108950F93DF93CF9300D0A2
:100CE000CDB7DEB704B600FE07C014BE0E945E0694
:100CF00080E090E000E21CC004B601FEF9CF14BE13
:100D000080914F018F5F80934F018F3088F3109255
:100D10004F01EECF9C01220F331F3A83298381E0DC
:100D20000E94F90881709070E981FA818E2B9F2BC7
:100D3000015081F70E94EE098091810081608093CB
:100D4000810080916F00816080936F00789482E0D1
:100D500061E00E941B0982E061E00E945A090F9045
:100D60000F90CF91DF910F91089585E491E060E0BD
:100D700070E00E94FC0740914F01841731F085E438
:100D800091E060E070E00E940308089580914F01B7
:100D9000815080934F018F3018F08EE080934F0187
:100DA0000E94B50680917A008F7780937A0080B791
:100DB000806880BF85B7806685BF83B7817F846088
:100DC00083BF83B7816083BF7894889564EF71E0B7
:100DD00080E090E00E94650883B78E7F83BF08950E
:100DE000CF92DF92EF92FF920F931F9310E0E0916A
:100DF0004F01F0E0E25DFE4F108368E070E080E0BC
:100E000090E00E9465081F5F103289F764EF71E07F
:100E100080E090E00E9465081FE1E0914F01F0E062
:100E2000E25DFE4F108368E070E080E090E00E9499
:100E30006508115090F764E670E080E090E00E9451
:100E400065080E94B50680914F01873009F468C09B
:100E5000883088F4833009F440C0843028F481302D
:100E600041F1823088F51DC0853009F447C08630D5
:100E700008F04DC03BC08B3009F479C08C3038F499
:100E8000893009F460C08A3008F066C051C08D30E6
:100E900009F483C08D3008F475C08E3009F094C019
:100EA00091C00E945708AB01BC0180EF90E024E1A3
:100EB0001BC00E945708AB01BC0180EF90E024E109
:100EC00002E00E94EB0180C00E945708AB01BC0108
:100ED00080EF90E024E105E0F4CF0E945708AB01D9
:100EE000BC0180EF90E025E001E0EBCF0E945708C5
:100EF000AB01BC0180EF90E025E0E2CF0E945708F3
:100F0000AB01BC0180EF90E00E94A4045DC00E9490
:100F10005708AB01BC0180EF90E00E94E60254C08C
:100F20000E945708AB01BC0180EF90E021E007C0B0
:100F30000E945708AB01BC0180EF90E024E001E083
:100F40000E94DB0341C00E945708AB01BC0180EF47
:100F500090E00E94840338C00E945708AB01BC0196
:100F600080EF90E020E030E008E710E028C00E9429
:100F70005708AB01BC0180EF90E028E730E000EFBC
:100F800010E01DC00E945708AB01BC0180EF90E04B
:100F900020EF30E007E611E012C068E671E080E083
:100FA00090E00E94AE096B017C018B010E94570802
:100FB000AB01BC0108581F4F80EF90E096010E94E2
:100FC000810202C00E9434050E94C6061F910F9143
:100FD000FF90EF90DF90CF900895CF93DF930E9422
:100FE000BE080E946C06C0E0D0E00E94F006209788
:100FF000E1F30E940000F9CFF999FECF72BD61BD07
:10100000F89A80B50895F999FECF1FBA72BD61BDF7
:1010100040BD0FB6F894FA9AF99A0FBE08951F9240
:101020000F920FB60F9211242F933F938F939F939C
:10103000AF93BF9380914A0190914B01A0914C01D5
:10104000B0914D0130914E010196A11DB11D232F8C
:101050002D5F2D3720F02D570196A11DB11D209336
:101060004E0180934A0190934B01A0934C01B093A1
:101070004D018091460190914701A0914801B091A6
:1010800049010196A11DB11D80934601909347012E
:10109000A0934801B0934901BF91AF919F918F9167
:1010A0003F912F910F900FBE0F901F9018958FB703
:1010B000F89420914A0130914B0140914C0150919C
:1010C0004D018FBFB901CA0108959B01AC017FB7E3
:1010D000F8948091460190914701A0914801B09108
:1010E000490166B5A89B05C06F3F19F00196A11D87
:1010F000B11D7FBFBA2FA92F982F8827860F911D6A
:10110000A11DB11D62E0880F991FAA1FBB1F6A9520
:10111000D1F7BC012DC0FFB7F894809146019091A2
:101120004701A0914801B0914901E6B5A89B05C0CF
:10113000EF3F19F00196A11DB11DFFBFBA2FA92FD6
:10114000982F88278E0F911DA11DB11DE2E0880FF9
:10115000991FAA1FBB1FEA95D1F7861B970B885EC4
:101160009340C8F2215030404040504068517C4F7D
:10117000211531054105510571F60895789484B51E
:10118000826084BD84B5816084BD85B5826085BD83
:1011900085B5816085BDEEE6F0E080818160808369
:1011A000E1E8F0E01082808182608083808181604C
:1011B0008083E0E8F0E0808181608083E1EBF0E013
:1011C000808184608083E0EBF0E0808181608083B7
:1011D000EAE7F0E0808184608083808182608083A0
:1011E0008081816080838081806880831092C100CB
:1011F0000895982F8E3008F09E50977080910501C9
:101200008295880F880F807C892B80937C00809149
:101210007A00806480937A0080917A0086FDFCCF0A
:101220002091780040917900942F80E030E0282BC5
:10123000392BC9010895CF93DF93482F50E0CA019D
:1012400086569F4FFC0134914A575F4FFA018491B3
:10125000882369F190E0880F991FFC01E859FF4F3E
:10126000A591B491FC01EE58FF4FC591D49166232E
:1012700051F42FB7F8948C91932F909589238C93E8
:10128000888189230BC0623061F42FB7F8948C9168
:10129000932F909589238C938881832B88832FBFEC
:1012A00006C09FB7F8948C91832B8C939FBFDF91DE
:1012B000CF910895482F50E0CA0182559F4FFC01FD
:1012C0002491CA0186569F4FFC0194914A575F4F63
:1012D000FA013491332309F440C0222351F1233021
:1012E00071F0243028F42130A1F0223011F514C01F
:1012F0002630B1F02730C1F02430D9F404C08091F9
:1013000080008F7703C0809180008F7D8093800064
:1013100010C084B58F7702C084B58F7D84BD09C0AD
:101320008091B0008F7703C08091B0008F7D809353
:10133000B000E32FF0E0EE0FFF1FEE58FF4FA59136
:10134000B4912FB7F894662321F48C91909589235A
:1013500002C08C91892B8C932FBF0895EF92FF923E
:101360000F931F937B018C01611571058105910518
:1013700029F420E030E040E050E00BC00E94D300B0
:10138000A80197010E94280AAC01CB01DA019C0157
:10139000AD01B901CA011F910F91FF90EF9008951F
:1013A000EF92FF920F931F937B018C0162177307DB
:1013B0008407950764F4261B370B480B590BCA01A9
:1013C000B9010E94AE09E60EF71E081F191FB701EA
:1013D000C8011F910F91FF90EF900895009729F099
:1013E000BC0180E090E00E94D8000895629FD00187
:1013F000739FF001829FE00DF11D649FE00DF11DD0
:10140000929FF00D839FF00D749FF00D659FF00D7E
:101410009927729FB00DE11DF91F639FB00DE11D6B
:10142000F91FBD01CF011124089597FB092E07264E
:101430000AD077FD04D05ED006D000201AF4709553
:1014400061957F4F0895F6F7909581959F4F089588
:1014500097FB092E05260ED057FD04D05FD00AD089
:10146000001C38F450954095309521953F4F4F4FD3
:101470005F4F0895F6F790958095709561957F4F31
:101480008F4F9F4F08952F923F924F925F926F928E
:101490007F928F929F92AF92BF92CF92DF92EF9204
:1014A000FF920F931F93CF93DF93CDB7DEB7CA1B85
:1014B000DB0B0FB6F894DEBF0FBECDBF09942A88B0
:1014C000398848885F846E847D848C849B84AA8458
:1014D000B984C884DF80EE80FD800C811B81AA81E5
:1014E000B981CE0FD11D0FB6F894DEBF0FBECDBFB0
:1014F000ED010895AA1BBB1B51E107C0AA1FBB1F2A
:10150000A617B70710F0A61BB70B881F991F5A958F
:10151000A9F780959095BC01CD010895A1E21A2EFE
:10152000AA1BBB1BFD010DC0AA1FBB1FEE1FFF1F87
:10153000A217B307E407F50720F0A21BB30BE40BD7
:10154000F50B661F771F881F991F1A9469F760951E
:101550007095809590959B01AC01BD01CF010895D8
:04156000F894FFCF2D
:10156400010000001F010101010101251D150D05E8
:101574000311180C06060311180C0A0512091402AB
:0E1584000110080402011008040201100804FE
:00000001FF
