:100000000EC028C027C026C041C380C023C022C064
:1000100021C020C01FC01EC01DC01CC01BC0112499
:100020001FBECFE5D2E0DEBFCDBF10E0A0E6B0E05E
:10003000E6E4FAE002C005900D92A438B107D9F7C2
:1000400010E0A4E8B0E001C01D92A13AB107E1F7C9
:10005000CBD25AC0D5CFA0E0B0E0E0E3F0E0A0C43E
:10006000EC01A880B980CA80DB80A114B104C1046E
:10007000D10441F484E2A82E89EDB82E8BE5C82E78
:1000800087E0D82EC601B5012DE133EF41E050E005
:1000900064D427EA31E440E050E01FD47B018C01B6
:1000A000C601B5012DE133EF41E050E056D4CA015D
:1000B000B9012CEE34EF4FEF5FEF0FD46E0D7F1DC3
:1000C000801F911F97FF04C061507040804090488E
:1000D000688379838A839B839B01AC015F77B90135
:1000E000CA01CDB7DEB7EAE077C4B5DF089580E690
:1000F00090E0B1DF08956093600070936100809399
:100100006200909363000895F8949BC41F920F922D
:100110000FB60F9211242F933F934F935F936F93DA
:100120008F939F93AF93BF93EF93FF93809164005E
:10013000482F50E0A0E0B0E0FD01EC57FF4F808178
:10014000282F30E02115310581F0FD01EB59FF4FDB
:100150006081FD01EC58FF4FE08180E090E067BBDB
:10016000E8BB019682179307D0F32417350740F4B4
:10017000C90117BA18BA019684179507D0F39A01E6
:100180001196AF30B105C1F68FE0809395003093A2
:1001900094002093930017BA18BAFF91EF91BF9182
:1001A000AF919F918F916F915F914F913F912F915F
:1001B0000F900FBE0F901F901895CF92DF92EF9285
:1001C000FF920F931F93CF93DF93E82EFB018A01D9
:1001D000E90121E06836720774F09B01285631402E
:1001E000C90168E671E092D3CB0168E97EEF63D381
:1001F000F901E80FF91FF7FF0EC0CF018095909528
:1002000069E671E083D3CB0169E671E054D3E75925
:10021000FE4FE80FF91F0115110549F18FEF90E02E
:10022000801B910BBE0147D39C01032F112707FDB3
:100230001A958CE3C82ED12CCF016CE370E07AD3F1
:100240006230710509F453C06330710554F16430B4
:10025000710509F4E0C0643071050CF4B4C0653078
:10026000710509F469C0FF2440E020E00AC0CE0116
:10027000959587959595879595958795F82E482F0F
:10028000282FEE2DF0E0EC57FF4FF08245832287B8
:10029000DF91CF911F910F91FF90EF90DF90CF9062
:1002A00008956115710509F062C0CE019595879595
:1002B0009595879595958795F82EC01BD10BCF0105
:1002C000BE01F9D26CE370E035D3600F711F7595F4
:1002D00067957595679575956795462FC901892F1F
:1002E000990F990B859585958595282FCACFC901BA
:1002F000892F990F990B859585958595F82ECE01B7
:10030000959587959595879595958795482FCF01D4
:100310006CE370E00FD3C01BD10BBE01CCD26CE3F9
:1003200070E008D3600F711F759567957595679597
:1003300075956795262FA5CFCE01959587959595AF
:10034000879595958795F82EC901892F990F990B57
:10035000859585958595482FCF016CE370E0EAD2AD
:10036000C01BD10B9601281B390BC901D6CF6130B8
:10037000710509F078CFCF016CE370E0DBD2BE01EC
:10038000601B710BA601481B590BCA0194D26CE388
:1003900070E0D0D2600F711F759567957595679560
:1003A00075956795F62ED595C795D595C795D5952D
:1003B000C7954C2FC901892F990F990B8595859564
:1003C0008595282F5ECFC901892F990F990B8595A7
:1003D00085958595F82ECF016CE370E0ABD2BE0118
:1003E000601B710B9601281B390BC90164D26CE3A9
:1003F00070E0A0D2600F711F759567957595679530
:1004000075956795462FD595C795D595C795D5957B
:10041000C7952C2F36CFCF016CE370E08BD2BE0195
:10042000601B710B48D26CE370E084D2600F711FC7
:10043000759567957595679575956795F62EC901BC
:10044000892F990F990B859585958595482FD59579
:10045000C795D595C795D595C7952C2F12CFEF92F7
:10046000FF920F931F93CF93DF93E091A100F0E0F1
:10047000EC57FF4F8FE1808368EE73E080E090E0FF
:100480005CD1E091A100F0E0EC57FF4F10826AEFE1
:1004900070E080E090E051D186E990E060E070E0AB
:1004A000E2D04091A100841729F086E990E060E055
:1004B00070E0E0D034D17B018C0180E09AEBABEDB1
:1004C000B0E0E80EF91E0A1F1B1F29D16E157F052B
:1004D0008007910708F053C0C8E6D1E020D16E151F
:1004E0007F058007910788F7CE0168E671E022D288
:1004F000BC0180E04FEF50E02FEF30E05EDECE0138
:10050000429668E671E016D2BC0181E04FEF50E000
:100510002FEF30E052DECE01849668E671E00AD219
:10052000BC0182E04FEF50E02FEF30E046DECE011D
:10053000C69668E671E0FED1BC0183E04FEF50E063
:100540002FEF30E03ADECE01885B9F4F68E671E026
:10055000F1D1BC0184E04FEF50E02FEF30E02DDE11
:100560006AE070E080E090E0E8D0219709F0B6CF33
:10057000D6D06E157F058007910708F4ADCF809126
:10058000A10081508093A1008F3018F08EE08093FD
:10059000A10086E990E060E070E065D04091A100A4
:1005A000841729F086E990E060E070E063D0379826
:1005B000479A85B7846885BF85B7877E806185BF88
:1005C00085B7806285BF7894889564EF71E080E09C
:1005D00090E0B3D085B78F7D85BFDF91CF911F911C
:1005E0000F91FF90EF9008950F93DF93CF9300D07A
:1005F000CDB7DEB70ED104B600FC2AC004B601FEAA
:100600000AC014BE8091A1008F5F8093A1008F303B
:1006100010F01092A10080E090E00EE19C01220F0A
:10062000331F3A83298381E01AD181709070E98168
:10063000FA818E2B9F2B015088F735D183B78160CB
:1006400083BF89B7826089BF789409DF08DFFDCF57
:1006500014BE86E990E060E070E005D08F30C8F607
:100660008093A100D8CFE199FECF7FBB6EBBE09A0B
:100670008DB30895E199FECF1CBA7FBB6EBB4DBB15
:100680000FB6F894E29AE19A0FBE08951F920F9266
:100690000FB60F9211242F933F938F939F93AF9395
:1006A000BF9380919B0090919C00A0919D00B09180
:1006B0009E0030919F00232F2D5F2D3758F5019616
:1006C000A11DB11D20939F0080939B0090939C00DF
:1006D000A0939D00B0939E00809197009091980008
:1006E000A0919900B0919A000196A11DB11D80932F
:1006F000970090939800A0939900B0939A00BF91AF
:10070000AF919F918F913F912F910F900FBE0F90BE
:100710001F9018952D570296A11DB11DD3CF8FB7ED
:10072000F89420919B0030919C0040919D00509145
:100730009E008FBFB901CA010895EF92FF920F93F7
:100740001F937B018C012FB7F894809197009091B3
:100750009800A0919900B0919A003FB508B602FEAA
:1007600005C03F3F19F00196A11DB11D2FBFE11437
:10077000F1040105110509F447C0BA2FA92F982FDC
:100780008827830F911DA11DB11D880F991FAA1FD6
:10079000BB1F880F991FAA1FBB1FAC013FB7F8945E
:1007A0008091970090919800A0919900B0919A0043
:1007B0002FB508B602FE05C02F3F19F00196A11D06
:1007C000B11D3FBFBA2FA92F982F8827820F911DE7
:1007D000A11DB11D880F991FAA1FBB1F880F991F4C
:1007E000AA1FBB1F841B950B885E9340B8F2089428
:1007F000E108F10801091109E114F10401051105ED
:1008000019F048515C4FCACF1F910F91FF90EF90A4
:100810000895789480B7806880BF80B7806480BF77
:100820008CB580648CBD8FEF8DBD80B7807F876075
:1008300080BF89B7846089BF83B7887F83BF8AB54B
:100840008C7F81608ABD83B7877F83BF83B7887FB2
:10085000836083BF86B1876086B9379A0895482F31
:10086000863008F046508091A00027B1382F32958D
:10087000330F330F307C2F72322B90E084709070E6
:1008800096958795969587958295807F382B37B971
:1008900087B1807F842B87B9369A3699FECF24B1F1
:1008A00035B1C9010895009709F40895BC0180E0AD
:1008B00090E021DC08955527002480FF02C0060E39
:1008C000571F660F771F6115710521F09695879563
:1008D000009799F7952F802D0895FF27EE27BB27C6
:1008E000AA2760FF04C0A20FB31FE41FF51F220F49
:1008F000331F441F551F969587957795679589F700
:100900000097760771F7CF01BD010895AA1BBB1BA5
:1009100051E107C0AA1FBB1FA617B70710F0A61BFF
:10092000B70B881F991F5A95A9F780959095BC0120
:10093000CD01089597FB092E07260AD077FD04D034
:10094000E5DF06D000201AF4709561957F4F089579
:10095000F6F7909581959F4F089597FB092E0526F0
:100960000ED057FD04D04BD00AD0001C38F450955F
:100970004095309521953F4F4F4F5F4F0895F6F7C3
:1009800090958095709561957F4F8F4F9F4F0895FB
:100990002F923F924F925F926F927F928F929F928F
:1009A000AF92BF92CF92DF92EF92FF920F931F937D
:1009B000CF93DF93CDB7DEB7CA1BDB0B0FB6F8942E
:1009C000DEBF0FBECDBF09942A88398848885F846E
:1009D0006E847D848C849B84AA84B984C884DF80DF
:1009E000EE80FD800C811B81AA81B981CE0FD11DC3
:1009F0000FB6F894DEBF0FBECDBFED010895A1E2A2
:100A00001A2EAA1BBB1BFD010DC0AA1FBB1FEE1F88
:100A1000FF1FA217B307E407F50720F0A21BB30BD3
:100A2000E40BF50B661F771F881F991F1A9469F74F
:100A300060957095809590959B01AC01BD01CF01AB
:060A40000895F894FFCFB9
:100A4600010000001F0311180C06060311180C0AFA
:100A5600051209140201100804020110080402011B
:040A66001008040070
:00000001FF
